{
  "contractName": "SupplyChain",
  "abi": [
    {
      "constant": false,
      "inputs": [
        {
          "name": "account",
          "type": "address"
        }
      ],
      "name": "addConsumer",
      "outputs": [],
      "payable": false,
      "stateMutability": "nonpayable",
      "type": "function"
    },
    {
      "constant": true,
      "inputs": [
        {
          "name": "account",
          "type": "address"
        }
      ],
      "name": "isRetailer",
      "outputs": [
        {
          "name": "",
          "type": "bool"
        }
      ],
      "payable": false,
      "stateMutability": "view",
      "type": "function"
    },
    {
      "constant": false,
      "inputs": [],
      "name": "renounceConsumer",
      "outputs": [],
      "payable": false,
      "stateMutability": "nonpayable",
      "type": "function"
    },
    {
      "constant": false,
      "inputs": [],
      "name": "renounceDistributor",
      "outputs": [],
      "payable": false,
      "stateMutability": "nonpayable",
      "type": "function"
    },
    {
      "constant": false,
      "inputs": [
        {
          "name": "account",
          "type": "address"
        }
      ],
      "name": "addDistributor",
      "outputs": [],
      "payable": false,
      "stateMutability": "nonpayable",
      "type": "function"
    },
    {
      "constant": false,
      "inputs": [
        {
          "name": "account",
          "type": "address"
        }
      ],
      "name": "addFarmer",
      "outputs": [],
      "payable": false,
      "stateMutability": "nonpayable",
      "type": "function"
    },
    {
      "constant": false,
      "inputs": [],
      "name": "renounceFarmer",
      "outputs": [],
      "payable": false,
      "stateMutability": "nonpayable",
      "type": "function"
    },
    {
      "constant": true,
      "inputs": [
        {
          "name": "account",
          "type": "address"
        }
      ],
      "name": "isConsumer",
      "outputs": [
        {
          "name": "",
          "type": "bool"
        }
      ],
      "payable": false,
      "stateMutability": "view",
      "type": "function"
    },
    {
      "constant": false,
      "inputs": [
        {
          "name": "account",
          "type": "address"
        }
      ],
      "name": "addRetailer",
      "outputs": [],
      "payable": false,
      "stateMutability": "nonpayable",
      "type": "function"
    },
    {
      "constant": true,
      "inputs": [
        {
          "name": "account",
          "type": "address"
        }
      ],
      "name": "isDistributor",
      "outputs": [
        {
          "name": "",
          "type": "bool"
        }
      ],
      "payable": false,
      "stateMutability": "view",
      "type": "function"
    },
    {
      "constant": true,
      "inputs": [
        {
          "name": "account",
          "type": "address"
        }
      ],
      "name": "isFarmer",
      "outputs": [
        {
          "name": "",
          "type": "bool"
        }
      ],
      "payable": false,
      "stateMutability": "view",
      "type": "function"
    },
    {
      "constant": false,
      "inputs": [],
      "name": "renounceRetailer",
      "outputs": [],
      "payable": false,
      "stateMutability": "nonpayable",
      "type": "function"
    },
    {
      "inputs": [],
      "payable": true,
      "stateMutability": "payable",
      "type": "constructor"
    },
    {
      "anonymous": false,
      "inputs": [
        {
          "indexed": false,
          "name": "upc",
          "type": "uint256"
        }
      ],
      "name": "Harvested",
      "type": "event"
    },
    {
      "anonymous": false,
      "inputs": [
        {
          "indexed": false,
          "name": "upc",
          "type": "uint256"
        }
      ],
      "name": "Processed",
      "type": "event"
    },
    {
      "anonymous": false,
      "inputs": [
        {
          "indexed": false,
          "name": "upc",
          "type": "uint256"
        }
      ],
      "name": "Packed",
      "type": "event"
    },
    {
      "anonymous": false,
      "inputs": [
        {
          "indexed": false,
          "name": "upc",
          "type": "uint256"
        }
      ],
      "name": "ForSale",
      "type": "event"
    },
    {
      "anonymous": false,
      "inputs": [
        {
          "indexed": false,
          "name": "upc",
          "type": "uint256"
        }
      ],
      "name": "Sold",
      "type": "event"
    },
    {
      "anonymous": false,
      "inputs": [
        {
          "indexed": false,
          "name": "upc",
          "type": "uint256"
        }
      ],
      "name": "Shipped",
      "type": "event"
    },
    {
      "anonymous": false,
      "inputs": [
        {
          "indexed": false,
          "name": "upc",
          "type": "uint256"
        }
      ],
      "name": "Received",
      "type": "event"
    },
    {
      "anonymous": false,
      "inputs": [
        {
          "indexed": false,
          "name": "upc",
          "type": "uint256"
        }
      ],
      "name": "Purchased",
      "type": "event"
    },
    {
      "anonymous": false,
      "inputs": [
        {
          "indexed": true,
          "name": "account",
          "type": "address"
        }
      ],
      "name": "ConsumerAdded",
      "type": "event"
    },
    {
      "anonymous": false,
      "inputs": [
        {
          "indexed": true,
          "name": "account",
          "type": "address"
        }
      ],
      "name": "ConsumerRemoved",
      "type": "event"
    },
    {
      "anonymous": false,
      "inputs": [
        {
          "indexed": true,
          "name": "account",
          "type": "address"
        }
      ],
      "name": "RetailerAdded",
      "type": "event"
    },
    {
      "anonymous": false,
      "inputs": [
        {
          "indexed": true,
          "name": "account",
          "type": "address"
        }
      ],
      "name": "RetailerRemoved",
      "type": "event"
    },
    {
      "anonymous": false,
      "inputs": [
        {
          "indexed": true,
          "name": "account",
          "type": "address"
        }
      ],
      "name": "DistributorAdded",
      "type": "event"
    },
    {
      "anonymous": false,
      "inputs": [
        {
          "indexed": true,
          "name": "account",
          "type": "address"
        }
      ],
      "name": "DistributorRemoved",
      "type": "event"
    },
    {
      "anonymous": false,
      "inputs": [
        {
          "indexed": true,
          "name": "account",
          "type": "address"
        }
      ],
      "name": "FarmerAdded",
      "type": "event"
    },
    {
      "anonymous": false,
      "inputs": [
        {
          "indexed": true,
          "name": "account",
          "type": "address"
        }
      ],
      "name": "FarmerRemoved",
      "type": "event"
    },
    {
      "constant": false,
      "inputs": [],
      "name": "kill",
      "outputs": [],
      "payable": false,
      "stateMutability": "nonpayable",
      "type": "function"
    },
    {
      "constant": false,
      "inputs": [
        {
          "name": "_upc",
          "type": "uint256"
        },
        {
          "name": "_originFarmerID",
          "type": "address"
        },
        {
          "name": "_originFarmName",
          "type": "string"
        },
        {
          "name": "_originFarmInformation",
          "type": "string"
        },
        {
          "name": "_originFarmLatitude",
          "type": "string"
        },
        {
          "name": "_originFarmLongitude",
          "type": "string"
        },
        {
          "name": "_productNotes",
          "type": "string"
        }
      ],
      "name": "harvestItem",
      "outputs": [],
      "payable": false,
      "stateMutability": "nonpayable",
      "type": "function"
    },
    {
      "constant": false,
      "inputs": [
        {
          "name": "_upc",
          "type": "uint256"
        }
      ],
      "name": "processItem",
      "outputs": [],
      "payable": false,
      "stateMutability": "nonpayable",
      "type": "function"
    },
    {
      "constant": false,
      "inputs": [
        {
          "name": "_upc",
          "type": "uint256"
        }
      ],
      "name": "packItem",
      "outputs": [],
      "payable": false,
      "stateMutability": "nonpayable",
      "type": "function"
    },
    {
      "constant": false,
      "inputs": [
        {
          "name": "_upc",
          "type": "uint256"
        },
        {
          "name": "_price",
          "type": "uint256"
        }
      ],
      "name": "sellItem",
      "outputs": [],
      "payable": false,
      "stateMutability": "nonpayable",
      "type": "function"
    },
    {
      "constant": false,
      "inputs": [
        {
          "name": "_upc",
          "type": "uint256"
        },
        {
          "name": "_price",
          "type": "uint256"
        }
      ],
      "name": "buyItem",
      "outputs": [],
      "payable": true,
      "stateMutability": "payable",
      "type": "function"
    },
    {
      "constant": false,
      "inputs": [
        {
          "name": "_upc",
          "type": "uint256"
        }
      ],
      "name": "shipItem",
      "outputs": [],
      "payable": false,
      "stateMutability": "nonpayable",
      "type": "function"
    },
    {
      "constant": false,
      "inputs": [
        {
          "name": "_upc",
          "type": "uint256"
        }
      ],
      "name": "receiveItem",
      "outputs": [],
      "payable": false,
      "stateMutability": "nonpayable",
      "type": "function"
    },
    {
      "constant": false,
      "inputs": [
        {
          "name": "_upc",
          "type": "uint256"
        }
      ],
      "name": "purchaseItem",
      "outputs": [],
      "payable": false,
      "stateMutability": "nonpayable",
      "type": "function"
    },
    {
      "constant": true,
      "inputs": [
        {
          "name": "_upc",
          "type": "uint256"
        }
      ],
      "name": "fetchItemBufferOne",
      "outputs": [
        {
          "name": "itemSKU",
          "type": "uint256"
        },
        {
          "name": "itemUPC",
          "type": "uint256"
        },
        {
          "name": "ownerID",
          "type": "address"
        },
        {
          "name": "originFarmerID",
          "type": "address"
        },
        {
          "name": "originFarmName",
          "type": "string"
        },
        {
          "name": "originFarmInformation",
          "type": "string"
        },
        {
          "name": "originFarmLatitude",
          "type": "string"
        },
        {
          "name": "originFarmLongitude",
          "type": "string"
        }
      ],
      "payable": false,
      "stateMutability": "view",
      "type": "function"
    },
    {
      "constant": true,
      "inputs": [
        {
          "name": "_upc",
          "type": "uint256"
        }
      ],
      "name": "fetchItemBufferTwo",
      "outputs": [
        {
          "name": "itemSKU",
          "type": "uint256"
        },
        {
          "name": "itemUPC",
          "type": "uint256"
        },
        {
          "name": "productID",
          "type": "uint256"
        },
        {
          "name": "productNotes",
          "type": "string"
        },
        {
          "name": "productPrice",
          "type": "uint256"
        },
        {
          "name": "itemState",
          "type": "uint256"
        },
        {
          "name": "distributorID",
          "type": "address"
        },
        {
          "name": "retailerID",
          "type": "address"
        },
        {
          "name": "consumerID",
          "type": "address"
        }
      ],
      "payable": false,
      "stateMutability": "view",
      "type": "function"
    }
  ],
  "bytecode": "0x60806040526200001e33620000c3640100000000026401000000009004565b62000038336200012d640100000000026401000000009004565b620000523362000197640100000000026401000000009004565b6200006c3362000201640100000000026401000000009004565b33600460006101000a81548173ffffffffffffffffffffffffffffffffffffffff021916908373ffffffffffffffffffffffffffffffffffffffff16021790555060016006819055506001600581905550620003c3565b620000e78160006200026b6401000000000262002271179091906401000000009004565b8073ffffffffffffffffffffffffffffffffffffffff167f2e0ded4123377a3c2bc9a26f1717655a129e2f20752924d42e730ec89c83dbd060405160405180910390a250565b620001518160016200026b6401000000000262002271179091906401000000009004565b8073ffffffffffffffffffffffffffffffffffffffff167fddbf200aa634dc3fb81cfd68583dd1040d1c751d335e1d86b631bde3e977fea860405160405180910390a250565b620001bb8160026200026b6401000000000262002271179091906401000000009004565b8073ffffffffffffffffffffffffffffffffffffffff167f71ae26cad02663e3d92efd6ec56031a80d74a20c0ab4183faa8bf262261c9baa60405160405180910390a250565b620002258160036200026b6401000000000262002271179091906401000000009004565b8073ffffffffffffffffffffffffffffffffffffffff167f28b26e7a3d20aedbc5f8f2ebf7da671c0491723a2b78f47a097b0e46dee0714260405160405180910390a250565b600073ffffffffffffffffffffffffffffffffffffffff168173ffffffffffffffffffffffffffffffffffffffff1614151515620002a857600080fd5b620002c382826200032e640100000000026401000000009004565b151515620002d057600080fd5b60018260000160008373ffffffffffffffffffffffffffffffffffffffff1673ffffffffffffffffffffffffffffffffffffffff16815260200190815260200160002060006101000a81548160ff0219169083151502179055505050565b60008073ffffffffffffffffffffffffffffffffffffffff168273ffffffffffffffffffffffffffffffffffffffff16141515156200036c57600080fd5b8260000160008373ffffffffffffffffffffffffffffffffffffffff1673ffffffffffffffffffffffffffffffffffffffff16815260200190815260200160002060009054906101000a900460ff16905092915050565b6124a180620003d36000396000f300608060405260043610610133576000357c0100000000000000000000000000000000000000000000000000000000900463ffffffff168063112940f9146101385780632d9235611461017b57806341c0e1b5146101b257806349dae766146101c95780635da09b88146101f657806361e6982d14610251578063644241db1461026857806366225ff91461027f5780637250e224146103e157806377c459131461042457806380c3f96d1461068257806380fc0ce4146106c5578063834ff739146106dc5780638ec4f505146107375780638f0c86fa1461077a5780639979c009146107d5578063a26be999146107ff578063b94290691461082c578063bdd8a6a814610887578063d38ea5bf14610a32578063db0e6a2f14610a5f578063f30fc48014610a76578063f61c899a14610aa3575b600080fd5b34801561014457600080fd5b50610179600480360381019080803573ffffffffffffffffffffffffffffffffffffffff169060200190929190505050610ad0565b005b34801561018757600080fd5b506101b06004803603810190808035906020019092919080359060200190929190505050610af0565b005b3480156101be57600080fd5b506101c7610c26565b005b3480156101d557600080fd5b506101f460048036038101908080359060200190929190505050610cb9565b005b34801561020257600080fd5b50610237600480360381019080803573ffffffffffffffffffffffffffffffffffffffff169060200190929190505050610dd3565b604051808215151515815260200191505060405180910390f35b34801561025d57600080fd5b50610266610df0565b005b34801561027457600080fd5b5061027d610dfb565b005b34801561028b57600080fd5b506102aa60048036038101908080359060200190929190505050610e06565b604051808a8152602001898152602001888152602001806020018781526020018681526020018573ffffffffffffffffffffffffffffffffffffffff1673ffffffffffffffffffffffffffffffffffffffff1681526020018473ffffffffffffffffffffffffffffffffffffffff1673ffffffffffffffffffffffffffffffffffffffff1681526020018373ffffffffffffffffffffffffffffffffffffffff1673ffffffffffffffffffffffffffffffffffffffff168152602001828103825288818151815260200191508051906020019080838360005b8381101561039e578082015181840152602081019050610383565b50505050905090810190601f1680156103cb5780820380516001836020036101000a031916815260200191505b509a505050505050505050505060405180910390f35b3480156103ed57600080fd5b50610422600480360381019080803573ffffffffffffffffffffffffffffffffffffffff16906020019092919050505061102e565b005b34801561043057600080fd5b5061044f6004803603810190808035906020019092919050505061104e565b604051808981526020018881526020018773ffffffffffffffffffffffffffffffffffffffff1673ffffffffffffffffffffffffffffffffffffffff1681526020018673ffffffffffffffffffffffffffffffffffffffff1673ffffffffffffffffffffffffffffffffffffffff16815260200180602001806020018060200180602001858103855289818151815260200191508051906020019080838360005b8381101561050b5780820151818401526020810190506104f0565b50505050905090810190601f1680156105385780820380516001836020036101000a031916815260200191505b50858103845288818151815260200191508051906020019080838360005b83811015610571578082015181840152602081019050610556565b50505050905090810190601f16801561059e5780820380516001836020036101000a031916815260200191505b50858103835287818151815260200191508051906020019080838360005b838110156105d75780820151818401526020810190506105bc565b50505050905090810190601f1680156106045780820380516001836020036101000a031916815260200191505b50858103825286818151815260200191508051906020019080838360005b8381101561063d578082015181840152602081019050610622565b50505050905090810190601f16801561066a5780820380516001836020036101000a031916815260200191505b509c5050505050505050505050505060405180910390f35b34801561068e57600080fd5b506106c3600480360381019080803573ffffffffffffffffffffffffffffffffffffffff1690602001909291905050506113e5565b005b3480156106d157600080fd5b506106da611405565b005b3480156106e857600080fd5b5061071d600480360381019080803573ffffffffffffffffffffffffffffffffffffffff169060200190929190505050611410565b604051808215151515815260200191505060405180910390f35b34801561074357600080fd5b50610778600480360381019080803573ffffffffffffffffffffffffffffffffffffffff16906020019092919050505061142d565b005b34801561078657600080fd5b506107bb600480360381019080803573ffffffffffffffffffffffffffffffffffffffff16906020019092919050505061144d565b604051808215151515815260200191505060405180910390f35b6107fd600480360381019080803590602001909291908035906020019092919050505061146a565b005b34801561080b57600080fd5b5061082a600480360381019080803590602001909291905050506116cb565b005b34801561083857600080fd5b5061086d600480360381019080803573ffffffffffffffffffffffffffffffffffffffff169060200190929190505050611831565b604051808215151515815260200191505060405180910390f35b34801561089357600080fd5b50610a3060048036038101908080359060200190929190803573ffffffffffffffffffffffffffffffffffffffff169060200190929190803590602001908201803590602001908080601f0160208091040260200160405190810160405280939291908181526020018383808284378201915050505050509192919290803590602001908201803590602001908080601f0160208091040260200160405190810160405280939291908181526020018383808284378201915050505050509192919290803590602001908201803590602001908080601f0160208091040260200160405190810160405280939291908181526020018383808284378201915050505050509192919290803590602001908201803590602001908080601f0160208091040260200160405190810160405280939291908181526020018383808284378201915050505050509192919290803590602001908201803590602001908080601f016020809104026020016040519081016040528093929190818152602001838380828437820191505050505050919291929050505061184e565b005b348015610a3e57600080fd5b50610a5d60048036038101908080359060200190929190505050611bfb565b005b348015610a6b57600080fd5b50610a74611d62565b005b348015610a8257600080fd5b50610aa160048036038101908080359060200190929190505050611d6d565b005b348015610aaf57600080fd5b50610ace60048036038101908080359060200190929190505050611e87565b005b610ad933611410565b1515610ae457600080fd5b610aed81611f0d565b50565b8160026007811115610afe57fe5b60076000838152602001908152602001600020600b0160009054906101000a900460ff166007811115610b2d57fe5b141515610b3957600080fd5b600460009054906101000a900473ffffffffffffffffffffffffffffffffffffffff168073ffffffffffffffffffffffffffffffffffffffff163373ffffffffffffffffffffffffffffffffffffffff16141515610b9657600080fd5b600360076000868152602001908152602001600020600b0160006101000a81548160ff02191690836007811115610bc957fe5b02179055508260076000868152602001908152602001600020600a01819055507fa96ae0fc3224ebd79eebfe54bd130cc9cb94416cddd1f2386115e00b72532468846040518082815260200191505060405180910390a150505050565b600460009054906101000a900473ffffffffffffffffffffffffffffffffffffffff1673ffffffffffffffffffffffffffffffffffffffff163373ffffffffffffffffffffffffffffffffffffffff161415610cb757600460009054906101000a900473ffffffffffffffffffffffffffffffffffffffff1673ffffffffffffffffffffffffffffffffffffffff16ff5b565b8060006007811115610cc757fe5b60076000838152602001908152602001600020600b0160009054906101000a900460ff166007811115610cf657fe5b141515610d0257600080fd5b600460009054906101000a900473ffffffffffffffffffffffffffffffffffffffff168073ffffffffffffffffffffffffffffffffffffffff163373ffffffffffffffffffffffffffffffffffffffff16141515610d5f57600080fd5b600160076000858152602001908152602001600020600b0160006101000a81548160ff02191690836007811115610d9257fe5b02179055507f5afe3b1bf87069693c075da5c22a98d63d1aef98a30dbbe538d0781a98b77ee5836040518082815260200191505060405180910390a1505050565b6000610de9826002611f6790919063ffffffff16565b9050919050565b610df933611ffb565b565b610e0433612055565b565b600080600060606000806000806000600760008b8152602001908152602001600020600001549850600760008b8152602001908152602001600020600101549750600760008b8152602001908152602001600020600801549650600760008b81526020019081526020016000206009018054600181600116156101000203166002900480601f016020809104026020016040519081016040528092919081815260200182805460018160011615610100020316600290048015610f0a5780601f10610edf57610100808354040283529160200191610f0a565b820191906000526020600020905b815481529060010190602001808311610eed57829003601f168201915b50505050509550600760008b8152602001908152602001600020600a01549450600760008b8152602001908152602001600020600b0160009054906101000a900460ff166007811115610f5957fe5b9350600760008b8152602001908152602001600020600b0160019054906101000a900473ffffffffffffffffffffffffffffffffffffffff169250600760008b8152602001908152602001600020600c0160009054906101000a900473ffffffffffffffffffffffffffffffffffffffff169150600760008b8152602001908152602001600020600d0160009054906101000a900473ffffffffffffffffffffffffffffffffffffffff1690508888888888888888889850985098509850985098509850985098509193959799909294969850565b6110373361144d565b151561104257600080fd5b61104b816120af565b50565b600080600080606080606080600760008a8152602001908152602001600020600001549750600760008a8152602001908152602001600020600101549650600760008a815260200190815260200160002060020160009054906101000a900473ffffffffffffffffffffffffffffffffffffffff169550600760008a815260200190815260200160002060030160009054906101000a900473ffffffffffffffffffffffffffffffffffffffff169450600760008a81526020019081526020016000206004018054600181600116156101000203166002900480601f0160208091040260200160405190810160405280929190818152602001828054600181600116156101000203166002900480156111a85780601f1061117d576101008083540402835291602001916111a8565b820191906000526020600020905b81548152906001019060200180831161118b57829003601f168201915b50505050509350600760008a81526020019081526020016000206005018054600181600116156101000203166002900480601f0160208091040260200160405190810160405280929190818152602001828054600181600116156101000203166002900480156112595780601f1061122e57610100808354040283529160200191611259565b820191906000526020600020905b81548152906001019060200180831161123c57829003601f168201915b50505050509250600760008a81526020019081526020016000206006018054600181600116156101000203166002900480601f01602080910402602001604051908101604052809291908181526020018280546001816001161561010002031660029004801561130a5780601f106112df5761010080835404028352916020019161130a565b820191906000526020600020905b8154815290600101906020018083116112ed57829003601f168201915b50505050509150600760008a81526020019081526020016000206007018054600181600116156101000203166002900480601f0160208091040260200160405190810160405280929190818152602001828054600181600116156101000203166002900480156113bb5780601f10611390576101008083540402835291602001916113bb565b820191906000526020600020905b81548152906001019060200180831161139e57829003601f168201915b50505050509050878787878787878797509750975097509750975097509750919395975091939597565b6113ee33611831565b15156113f957600080fd5b61140281612109565b50565b61140e33612163565b565b6000611426826003611f6790919063ffffffff16565b9050919050565b61143633610dd3565b151561144157600080fd5b61144a816121bd565b50565b6000611463826001611f6790919063ffffffff16565b9050919050565b816003600781111561147857fe5b60076000838152602001908152602001600020600b0160009054906101000a900460ff1660078111156114a757fe5b1415156114b357600080fd5b818034101515156114c357600080fd5b83600080336007600089815260200190815260200160002060020160006101000a81548173ffffffffffffffffffffffffffffffffffffffff021916908373ffffffffffffffffffffffffffffffffffffffff1602179055503360076000898152602001908152602001600020600b0160016101000a81548173ffffffffffffffffffffffffffffffffffffffff021916908373ffffffffffffffffffffffffffffffffffffffff160217905550600460076000898152602001908152602001600020600b0160006101000a81548160ff021916908360078111156115a457fe5b02179055503373ffffffffffffffffffffffffffffffffffffffff166108fc879081150290604051600060405180830381858888f193505050501580156115ef573d6000803e3d6000fd5b507f92f64ca637d023f354075a4be751b169c1a8a9ccb6d33cdd0cb3520543995727876040518082815260200191505060405180910390a160076000848152602001908152602001600020600a01549150813403905060076000848152602001908152602001600020600d0160009054906101000a900473ffffffffffffffffffffffffffffffffffffffff1673ffffffffffffffffffffffffffffffffffffffff166108fc829081150290604051600060405180830381858888f193505050501580156116c1573d6000803e3d6000fd5b5050505050505050565b80600560078111156116d957fe5b60076000838152602001908152602001600020600b0160009054906101000a900460ff16600781111561170857fe5b14151561171457600080fd5b3360076000848152602001908152602001600020600c0160006101000a81548173ffffffffffffffffffffffffffffffffffffffff021916908373ffffffffffffffffffffffffffffffffffffffff160217905550336007600084815260200190815260200160002060020160006101000a81548173ffffffffffffffffffffffffffffffffffffffff021916908373ffffffffffffffffffffffffffffffffffffffff160217905550600660076000848152602001908152602001600020600b0160006101000a81548160ff021916908360078111156117f157fe5b02179055507fa8142743f8f70a4c26f3691cf4ed59718381fb2f18070ec52be1f1022d855557826040518082815260200191505060405180910390a15050565b6000611847826000611f6790919063ffffffff16565b9050919050565b61185733611831565b151561186257600080fd5b6101e06040519081016040528060065481526020018881526020018773ffffffffffffffffffffffffffffffffffffffff1681526020018773ffffffffffffffffffffffffffffffffffffffff16815260200186815260200185815260200184815260200183815260200160055460065401815260200182815260200160008152602001600060078111156118f357fe5b8152602001600073ffffffffffffffffffffffffffffffffffffffff168152602001600073ffffffffffffffffffffffffffffffffffffffff168152602001600073ffffffffffffffffffffffffffffffffffffffff1681525060076000898152602001908152602001600020600082015181600001556020820151816001015560408201518160020160006101000a81548173ffffffffffffffffffffffffffffffffffffffff021916908373ffffffffffffffffffffffffffffffffffffffff16021790555060608201518160030160006101000a81548173ffffffffffffffffffffffffffffffffffffffff021916908373ffffffffffffffffffffffffffffffffffffffff1602179055506080820151816004019080519060200190611a1e9291906123d0565b5060a0820151816005019080519060200190611a3b9291906123d0565b5060c0820151816006019080519060200190611a589291906123d0565b5060e0820151816007019080519060200190611a759291906123d0565b506101008201518160080155610120820151816009019080519060200190611a9e9291906123d0565b5061014082015181600a015561016082015181600b0160006101000a81548160ff02191690836007811115611acf57fe5b021790555061018082015181600b0160016101000a81548173ffffffffffffffffffffffffffffffffffffffff021916908373ffffffffffffffffffffffffffffffffffffffff1602179055506101a082015181600c0160006101000a81548173ffffffffffffffffffffffffffffffffffffffff021916908373ffffffffffffffffffffffffffffffffffffffff1602179055506101c082015181600d0160006101000a81548173ffffffffffffffffffffffffffffffffffffffff021916908373ffffffffffffffffffffffffffffffffffffffff1602179055509050506001600654016006819055507f8e55ccfc9778ff8eba1646d765cf1982537ce0f9257054a17b48aad745250183876040518082815260200191505060405180910390a150505050505050565b60055460066007811115611c0b57fe5b60076000838152602001908152602001600020600b0160009054906101000a900460ff166007811115611c3a57fe5b141515611c4657600080fd5b336007600084815260200190815260200160002060020160006101000a81548173ffffffffffffffffffffffffffffffffffffffff021916908373ffffffffffffffffffffffffffffffffffffffff1602179055503360076000848152602001908152602001600020600d0160006101000a81548173ffffffffffffffffffffffffffffffffffffffff021916908373ffffffffffffffffffffffffffffffffffffffff1602179055506007806000848152602001908152602001600020600b0160006101000a81548160ff02191690836007811115611d2257fe5b02179055507f653d56639fee6b566a5c804764e9689de38645f0b733df89a36a1b7b42173dd8826040518082815260200191505060405180910390a15050565b611d6b33612217565b565b8060016007811115611d7b57fe5b60076000838152602001908152602001600020600b0160009054906101000a900460ff166007811115611daa57fe5b141515611db657600080fd5b600460009054906101000a900473ffffffffffffffffffffffffffffffffffffffff168073ffffffffffffffffffffffffffffffffffffffff163373ffffffffffffffffffffffffffffffffffffffff16141515611e1357600080fd5b600260076000858152602001908152602001600020600b0160006101000a81548160ff02191690836007811115611e4657fe5b02179055507f9b3b66e2380b690bae22c73ef1428fb0c91e72fe14a4b6defa13035214187aff836040518082815260200191505060405180910390a1505050565b611e903361144d565b1515611e9b57600080fd5b600560076000838152602001908152602001600020600b0160006101000a81548160ff02191690836007811115611ece57fe5b02179055507ff00b9a5725b80c54016f42114f6ed7792d22eecb116011c4afac29c57bef6c95816040518082815260200191505060405180910390a150565b611f2181600361227190919063ffffffff16565b8073ffffffffffffffffffffffffffffffffffffffff167f28b26e7a3d20aedbc5f8f2ebf7da671c0491723a2b78f47a097b0e46dee0714260405160405180910390a250565b60008073ffffffffffffffffffffffffffffffffffffffff168273ffffffffffffffffffffffffffffffffffffffff1614151515611fa457600080fd5b8260000160008373ffffffffffffffffffffffffffffffffffffffff1673ffffffffffffffffffffffffffffffffffffffff16815260200190815260200160002060009054906101000a900460ff16905092915050565b61200f81600361232190919063ffffffff16565b8073ffffffffffffffffffffffffffffffffffffffff167fe3f5ed5f263f1f01764a96edfc7d025f511ec5f7d180e8816908b78bcf74f09860405160405180910390a250565b61206981600161232190919063ffffffff16565b8073ffffffffffffffffffffffffffffffffffffffff167f126174f6cf49c81cdb4a9214c6b8f037bef55b4ec31e4fc776cea2a1c8a88d5960405160405180910390a250565b6120c381600161227190919063ffffffff16565b8073ffffffffffffffffffffffffffffffffffffffff167fddbf200aa634dc3fb81cfd68583dd1040d1c751d335e1d86b631bde3e977fea860405160405180910390a250565b61211d81600061227190919063ffffffff16565b8073ffffffffffffffffffffffffffffffffffffffff167f2e0ded4123377a3c2bc9a26f1717655a129e2f20752924d42e730ec89c83dbd060405160405180910390a250565b61217781600061232190919063ffffffff16565b8073ffffffffffffffffffffffffffffffffffffffff167fa5e0f060af304ab17dd418c7927e3da3ae7868189bf387aee09ab179ccc572f260405160405180910390a250565b6121d181600261227190919063ffffffff16565b8073ffffffffffffffffffffffffffffffffffffffff167f71ae26cad02663e3d92efd6ec56031a80d74a20c0ab4183faa8bf262261c9baa60405160405180910390a250565b61222b81600261232190919063ffffffff16565b8073ffffffffffffffffffffffffffffffffffffffff167fdb7176e79cffef81cb01767dd0447a0b24bb72ca9778d4b245581086b2a7e6db60405160405180910390a250565b600073ffffffffffffffffffffffffffffffffffffffff168173ffffffffffffffffffffffffffffffffffffffff16141515156122ad57600080fd5b6122b78282611f67565b1515156122c357600080fd5b60018260000160008373ffffffffffffffffffffffffffffffffffffffff1673ffffffffffffffffffffffffffffffffffffffff16815260200190815260200160002060006101000a81548160ff0219169083151502179055505050565b600073ffffffffffffffffffffffffffffffffffffffff168173ffffffffffffffffffffffffffffffffffffffff161415151561235d57600080fd5b6123678282611f67565b151561237257600080fd5b60008260000160008373ffffffffffffffffffffffffffffffffffffffff1673ffffffffffffffffffffffffffffffffffffffff16815260200190815260200160002060006101000a81548160ff0219169083151502179055505050565b828054600181600116156101000203166002900490600052602060002090601f016020900481019282601f1061241157805160ff191683800117855561243f565b8280016001018555821561243f579182015b8281111561243e578251825591602001919060010190612423565b5b50905061244c9190612450565b5090565b61247291905b8082111561246e576000816000905550600101612456565b5090565b905600a165627a7a72305820dbfe4e01df4a0e245ab458e08c3790cbc46f5ebdcd002895442b6b9357d8f2ff0029",
  "source": "pragma solidity ^0.4.24;\n// Define a contract 'Supplychain'\n\n\n\nimport \"../coffeeaccesscontrol/FarmerRole.sol\";\nimport \"../coffeeaccesscontrol/DistributorRole.sol\";\nimport \"../coffeeaccesscontrol/RetailerRole.sol\";\nimport \"../coffeeaccesscontrol/ConsumerRole.sol\";\n\ncontract SupplyChain is FarmerRole,DistributorRole,RetailerRole,ConsumerRole {\n\n// Define 'owner'\naddress owner;\n\n// Define a variable called 'upc' for Universal Product Code (UPC)\nuint  upc;\n\n// Define a variable called 'sku' for Stock Keeping Unit (SKU)\nuint  sku;\n\n// Define a public mapping 'items' that maps the UPC to an Item.\nmapping (uint => Item) items;\n\n// uint paidValue;\n// Define a public mapping 'itemsHistory' that maps the UPC to an array of TxHash, \n// that track its journey through the supply chain -- to be sent from DApp.\n\n// TODO: use items history mapping\nmapping (uint => string[]) itemsHistory;\n\n// Define enum 'State' with the following values:\nenum State \n{ \nHarvested,  // 0\nProcessed,  // 1\nPacked,     // 2\nForSale,    // 3\nSold,       // 4\nShipped,    // 5\nReceived,   // 6\nPurchased   // 7\n}\n\nState constant defaultState = State.Harvested;\n\n// Define a struct 'Item' with the following fields:\nstruct Item {\nuint    sku;  // Stock Keeping Unit (SKU)\nuint    upc; // Universal Product Code (UPC), generated by the Farmer, goes on the package, can be verified by the Consumer\naddress ownerID;  // Metamask-Ethereum address of the current owner as the product moves through 8 stages\naddress originFarmerID; // Metamask-Ethereum address of the Farmer\nstring  originFarmName; // Farmer Name\nstring  originFarmInformation;  // Farmer Information\nstring  originFarmLatitude; // Farm Latitude\nstring  originFarmLongitude;  // Farm Longitude\nuint    productID;  // Product ID potentially a combination of upc + sku\nstring  productNotes; // Product Notes\nuint    productPrice; // Product Price\nState   itemState;  // Product State as represented in the enum above\naddress distributorID;  // Metamask-Ethereum address of the Distributor\naddress retailerID; // Metamask-Ethereum address of the Retailer\naddress consumerID; // Metamask-Ethereum address of the Consumer\n}\n\n// Define 8 events with the same 8 state values and accept 'upc' as input argument\nevent Harvested(uint upc);\nevent Processed(uint upc);\nevent Packed(uint upc);\nevent ForSale(uint upc);\nevent Sold(uint upc);\nevent Shipped(uint upc);\nevent Received(uint upc);\nevent Purchased(uint upc);\n\n// Define a modifer that checks to see if msg.sender == owner of the contract\nmodifier onlyOwner() {\n\trequire(msg.sender == owner);\n\t_;\n}\n\n// Define a modifer that verifies the Caller\nmodifier verifyCaller (address _address) {\n\trequire(msg.sender == _address); \n\t_;\n}\n\n// Define a modifier that checks if the paid amount is sufficient to cover the price\nmodifier paidEnough(uint _price) { \n\trequire(msg.value >= _price); \n\t_;\n}\n\n// Define a modifier that checks the price and refunds the remaining balance\nmodifier checkValue(uint _upc) {\n\t_;\n\tuint _price = items[_upc].productPrice;\n\tuint amountToReturn = msg.value - _price;\n\titems[_upc].consumerID.transfer(amountToReturn);\n}\n\n// Define a modifier that checks if an item.state of a upc is Harvested\nmodifier harvested(uint _upc) {\n\trequire(items[_upc].itemState == State.Harvested);\n\t_;\n}\n\n// Define a modifier that checks if an item.state of a upc is Processed\nmodifier processed(uint _upc) {\n\trequire(items[_upc].itemState== State.Processed);\n\t_;\n}\n\n// Define a modifier that checks if an item.state of a upc is Packed\nmodifier packed(uint _upc) {\n\trequire(items[_upc].itemState== State.Packed);\n\t_;\n}\n\n// Define a modifier that checks if an item.state of a upc is ForSale\nmodifier forSale(uint _upc) {\n\trequire(items[_upc].itemState== State.ForSale);\n\t_;\n}\n\n// Define a modifier that checks if an item.state of a upc is Sold\nmodifier sold(uint _upc) {\n\trequire(items[_upc].itemState== State.Sold);\n\t_;\n}\n\n// Define a modifier that checks if an item.state of a upc is Shipped\nmodifier shipped(uint _upc) {\n\n\t//check that it is shipped\n\trequire(items[_upc].itemState== State.Shipped);\n\t_;\n}\n\n// Define a modifier that checks if an item.state of a upc is Received\nmodifier received(uint _upc) {\n\trequire(items[_upc].itemState== State.Received);\n\t_;\n}\n\n// Define a modifier that checks if an item.state of a upc is Purchased\nmodifier purchased(uint _upc) {\n\trequire(items[_upc].itemState== State.Purchased);\n\t_;\n}\n\n// In the constructor set 'owner' to the address that instantiated the contract\n// and set 'sku' to 1\n// and set 'upc' to 1\nconstructor() public payable {\n\towner = msg.sender;\n\tsku = 1;\n\tupc = 1;\n}\n\n// Define a function 'kill' if required\nfunction kill() public {\n\tif (msg.sender == owner) {\n\t\tselfdestruct(owner);\n\t}\n}\n\n \n\n/* \nHarvested,  // 0\nProcessed,  // 1\nPacked,     // 2\nForSale,    // 3\nSold,       // 4\nShipped,    // 5\nReceived,   // 6\nPurchased   // 7 \n*/\n\n//  Define a function 'harvestItem' that allows a farmer to mark an item 'Harvested'\n//  upc,originFarmerID,originFarmName,originFarmInformation,originFarmLatitude,originFarmLongitude,productNotes\n\n//  1,\"0x018c2dabef4904ecbd7118350a0c54dbeae3549a\",\"originFarmName\",\"originFarmInformation\",\"originFarmLatitude\",\"originFarmLongitude\",\"productNotes\"\n\n\nfunction harvestItem(uint _upc, address _originFarmerID, string _originFarmName, string _originFarmInformation, string  _originFarmLatitude, string  _originFarmLongitude, string  _productNotes) onlyFarmer() public \n{\n// Add the new item as part of Harvest\n\nitems[_upc]=Item({ sku:sku,upc:_upc,ownerID:_originFarmerID,originFarmerID:_originFarmerID,originFarmName:_originFarmName,originFarmInformation:_originFarmInformation,originFarmLatitude:_originFarmLatitude,originFarmLongitude:_originFarmLongitude,productID:sku+upc,productNotes:_productNotes,productPrice:0,itemState:State.Harvested,distributorID:0,retailerID:0,consumerID:0});\n\n// Increment sku\nsku = sku + 1;\n// Emit the appropriate event\nemit Harvested(_upc);\n\n}\n\n// Define a function 'processtItem' that allows a farmer to mark an item 'Processed'\nfunction processItem(uint _upc) harvested(_upc) verifyCaller(owner) public \n// Call modifier to check if upc has passed previous supply chain stage\n\n// Call modifier to verify caller of this function\n\n{\n// Update the appropriate fields\nitems[_upc].itemState = State.Processed;\n\n\n// Emit the appropriate event\nemit Processed(_upc);\n}\n\n// Define a function 'packItem' that allows a farmer to mark an item 'Packed'\nfunction packItem(uint _upc) processed(_upc) verifyCaller(owner) public \n// Call modifier to check if upc has passed previous supply chain stage\n\n// Call modifier to verify caller of this function\n\n{\n// Update the appropriate fields\nitems[_upc].itemState = State.Packed;\n\n// Emit the appropriate event\nemit Packed(_upc);\n\n}\n\n// Define a function 'sellItem' that allows a farmer to mark an item 'ForSale'\nfunction sellItem(uint _upc, uint _price) packed(_upc) verifyCaller(owner) public \n// Call modifier to check if upc has passed previous supply chain stage\n\n// Call modifier to verify caller of this function\n\n{\n// Update the appropriate fields\nitems[_upc].itemState = State.ForSale;\nitems[_upc].productPrice = _price;\n// Emit the appropriate event\nemit ForSale(_upc);\n\n}\n\n// Define a function 'buyItem' that allows the disributor to mark an item 'Sold'\n// Use the above defined modifiers to check if the item is available for sale, if the buyer has paid enough, \n// and any excess ether sent is refunded back to the buyer\nfunction buyItem(uint _upc,uint _price) forSale(_upc) paidEnough(_price) checkValue(_upc)  public payable \n// Call modifier to check if upc has passed previous supply chain stage\n\n// Call modifer to check if buyer has paid enough\n\n// Call modifer to send any excess ether back to buyer\n\n{\n\n// Update the appropriate fields - ownerID, distributorID, itemState\nitems[_upc].ownerID = msg.sender;\nitems[_upc].distributorID = msg.sender;\nitems[_upc].itemState = State.Sold;\n\n// paidValue = msg.value;\n\n// Transfer money to farmer\nmsg.sender.transfer(_price);\n\n// emit the appropriate event\nemit Sold(_upc);\n}\n\n// Define a function 'shipItem' that allows the distributor to mark an item 'Shipped'\n// Use the above modifers to check if the item is sold\nfunction shipItem(uint _upc)  onlyDistributor() public \n// Call modifier to check if upc has passed previous supply chain stage\n\n// Call modifier to verify caller of this function\n\n{\n// Update the appropriate fields\nitems[_upc].itemState = State.Shipped;\n\n// Emit the appropriate event\nemit Shipped(_upc);\n\n}\n\n// Define a function 'receiveItem' that allows the retailer to mark an item 'Received'\n// Use the above modifiers to check if the item is shipped\nfunction receiveItem(uint _upc) shipped(_upc) public \n// Call modifier to check if upc has passed previous supply chain stage\n\n// TODO: Access Control List enforced by calling Smart Contract / DApp\n{\n// Update the appropriate fields - ownerID, retailerID, itemState\nitems[_upc].retailerID = msg.sender;\nitems[_upc].ownerID = msg.sender;\nitems[_upc].itemState = State.Received;\n\n// Emit the appropriate event\nemit Received(_upc);\n\n\n}\n\n// Define a function 'purchaseItem' that allows the consumer to mark an item 'Purchased'\n// Use the above modifiers to check if the item is received\nfunction purchaseItem(uint _upc) received(upc) public \n// Call modifier to check if upc has passed previous supply chain stage\n\n// TODO: Access Control List enforced by calling Smart Contract / DApp\n{\n// Update the appropriate fields - ownerID, consumerID, itemState\nitems[_upc].ownerID = msg.sender;\nitems[_upc].consumerID = msg.sender;\nitems[_upc].itemState = State.Purchased;\n// Emit the appropriate event\nemit Purchased(_upc);\n}\n\n// Define a function 'fetchItemBufferOne' that fetches the data\nfunction fetchItemBufferOne(uint _upc) public view returns \n(\n\tuint    itemSKU,\n\tuint    itemUPC,\n\taddress ownerID,\n\taddress originFarmerID,\n\tstring  originFarmName,\n\tstring  originFarmInformation,\n\tstring  originFarmLatitude,\n\tstring  originFarmLongitude\n\t) \n{\n// Assign values to the 8 parameters\nitemSKU = items[_upc].sku;//0\nitemUPC = items[_upc].upc;//1\nownerID = items[_upc].ownerID;//2\noriginFarmerID = items[_upc].originFarmerID;//3\n\noriginFarmName = items[_upc].originFarmName;//4\noriginFarmInformation = items[_upc].originFarmInformation;//5\noriginFarmLatitude = items[_upc].originFarmLatitude;//6\noriginFarmLongitude = items[_upc].originFarmLongitude;//7\n\nreturn \n(\n\titemSKU,\n\titemUPC,\n\townerID,\n\toriginFarmerID,\n\toriginFarmName,\n\toriginFarmInformation,\n\toriginFarmLatitude,\n\toriginFarmLongitude\n\t);\n}\n\n// Define a function 'fetchItemBufferTwo' that fetches the data\nfunction fetchItemBufferTwo(uint _upc) public view returns \n(\n\tuint    itemSKU,\n\tuint    itemUPC,\n\tuint    productID,\n\tstring  productNotes,\n\tuint    productPrice,\n\tuint    itemState,\n\taddress distributorID,\n\taddress retailerID,\n\taddress consumerID\n\t/* ,\n    uint    paidValue */\n\t) \n{\n// Assign values to the 9 parameters\nitemSKU = items[_upc].sku; //0\nitemUPC = items[_upc].upc; //1\nproductID = items[_upc].productID; //2\nproductNotes = items[_upc].productNotes; //3\n\nproductPrice = items[_upc].productPrice; //4\nitemState = uint(items[_upc].itemState); //5\ndistributorID = items[_upc].distributorID; //6\nretailerID = items[_upc].retailerID; //7\n\nconsumerID = items[_upc].consumerID; //8\n\n// paidValue = msg.value; //9\nreturn \n(\n\titemSKU,\n\titemUPC,\n\tproductID,\n\tproductNotes,\n\tproductPrice,\n\titemState,\n\tdistributorID,\n\tretailerID,\n\tconsumerID\n\t/* ,\n\tpaidValue */\n\t);\n}\n\n// Define a function 'fetchItemBufferOne' that fetches the data\n/* function fetchMsg(uint _upc) public view returns \n(\n\taddress    msgSender,\n\tuint    msgValue\n) \n{\n// Assign values to the 8 parameters\nmsgSender = msg.sender;//0\nmsgValue = msg.value;//1\n \n \nreturn \n(\n\tmsgSender,\n\tmsgValue\n);\n} */\n\n// event test_value(uint256 indexed value1);\n// uint256 value_test;\n\n// function test_f()  {\n\n//   //value_test processing\n//   test_value(value_test); // log the current value\n\n// }\n}\n",
  "sourcePath": "/Users/msharekh/Google Drive/Blockchain Developer Nanodegree/Term 2/project-6-Architect a Blockchain Supply Chain Solution-Part B/contracts/coffeebase/SupplyChain.sol",
  "compiler": {
    "name": "solc",
    "version": "0.4.24+commit.e67f0147.Emscripten.clang"
  },
  "schemaVersion": "2.0.1",
  "updatedAt": "2019-04-19T07:31:31.197Z"
}