{
  "contractName": "SupplyChain",
  "abi": [
    {
      "constant": false,
      "inputs": [],
      "name": "renounceDistributor",
      "outputs": [],
      "payable": false,
      "stateMutability": "nonpayable",
      "type": "function"
    },
    {
      "constant": true,
      "inputs": [
        {
          "name": "account",
          "type": "address"
        }
      ],
      "name": "isDistributor",
      "outputs": [
        {
          "name": "",
          "type": "bool"
        }
      ],
      "payable": false,
      "stateMutability": "view",
      "type": "function"
    },
    {
      "inputs": [],
      "payable": true,
      "stateMutability": "payable",
      "type": "constructor"
    },
    {
      "anonymous": false,
      "inputs": [
        {
          "indexed": false,
          "name": "upc",
          "type": "uint256"
        }
      ],
      "name": "Harvested",
      "type": "event"
    },
    {
      "anonymous": false,
      "inputs": [
        {
          "indexed": false,
          "name": "upc",
          "type": "uint256"
        }
      ],
      "name": "Processed",
      "type": "event"
    },
    {
      "anonymous": false,
      "inputs": [
        {
          "indexed": false,
          "name": "upc",
          "type": "uint256"
        }
      ],
      "name": "Packed",
      "type": "event"
    },
    {
      "anonymous": false,
      "inputs": [
        {
          "indexed": false,
          "name": "upc",
          "type": "uint256"
        }
      ],
      "name": "ForSale",
      "type": "event"
    },
    {
      "anonymous": false,
      "inputs": [
        {
          "indexed": false,
          "name": "upc",
          "type": "uint256"
        }
      ],
      "name": "Sold",
      "type": "event"
    },
    {
      "anonymous": false,
      "inputs": [
        {
          "indexed": false,
          "name": "upc",
          "type": "uint256"
        }
      ],
      "name": "Shipped",
      "type": "event"
    },
    {
      "anonymous": false,
      "inputs": [
        {
          "indexed": false,
          "name": "upc",
          "type": "uint256"
        }
      ],
      "name": "Received",
      "type": "event"
    },
    {
      "anonymous": false,
      "inputs": [
        {
          "indexed": false,
          "name": "upc",
          "type": "uint256"
        }
      ],
      "name": "Purchased",
      "type": "event"
    },
    {
      "anonymous": false,
      "inputs": [
        {
          "indexed": true,
          "name": "account",
          "type": "address"
        }
      ],
      "name": "DistributorAdded",
      "type": "event"
    },
    {
      "anonymous": false,
      "inputs": [
        {
          "indexed": true,
          "name": "account",
          "type": "address"
        }
      ],
      "name": "DistributorRemoved",
      "type": "event"
    },
    {
      "constant": false,
      "inputs": [],
      "name": "kill",
      "outputs": [],
      "payable": false,
      "stateMutability": "nonpayable",
      "type": "function"
    },
    {
      "constant": false,
      "inputs": [
        {
          "name": "distributorID",
          "type": "address"
        }
      ],
      "name": "addDistributor",
      "outputs": [],
      "payable": false,
      "stateMutability": "nonpayable",
      "type": "function"
    },
    {
      "constant": false,
      "inputs": [
        {
          "name": "_upc",
          "type": "uint256"
        },
        {
          "name": "_originFarmerID",
          "type": "address"
        },
        {
          "name": "_originFarmName",
          "type": "string"
        },
        {
          "name": "_originFarmInformation",
          "type": "string"
        },
        {
          "name": "_originFarmLatitude",
          "type": "string"
        },
        {
          "name": "_originFarmLongitude",
          "type": "string"
        },
        {
          "name": "_productNotes",
          "type": "string"
        }
      ],
      "name": "harvestItem",
      "outputs": [],
      "payable": false,
      "stateMutability": "nonpayable",
      "type": "function"
    },
    {
      "constant": false,
      "inputs": [
        {
          "name": "_upc",
          "type": "uint256"
        }
      ],
      "name": "processItem",
      "outputs": [],
      "payable": false,
      "stateMutability": "nonpayable",
      "type": "function"
    },
    {
      "constant": false,
      "inputs": [
        {
          "name": "_upc",
          "type": "uint256"
        }
      ],
      "name": "packItem",
      "outputs": [],
      "payable": false,
      "stateMutability": "nonpayable",
      "type": "function"
    },
    {
      "constant": false,
      "inputs": [
        {
          "name": "_upc",
          "type": "uint256"
        },
        {
          "name": "_price",
          "type": "uint256"
        }
      ],
      "name": "sellItem",
      "outputs": [],
      "payable": false,
      "stateMutability": "nonpayable",
      "type": "function"
    },
    {
      "constant": false,
      "inputs": [
        {
          "name": "_upc",
          "type": "uint256"
        },
        {
          "name": "_price",
          "type": "uint256"
        }
      ],
      "name": "buyItem",
      "outputs": [],
      "payable": true,
      "stateMutability": "payable",
      "type": "function"
    },
    {
      "constant": false,
      "inputs": [
        {
          "name": "_upc",
          "type": "uint256"
        }
      ],
      "name": "shipItem",
      "outputs": [],
      "payable": false,
      "stateMutability": "nonpayable",
      "type": "function"
    },
    {
      "constant": false,
      "inputs": [
        {
          "name": "_upc",
          "type": "uint256"
        }
      ],
      "name": "receiveItem",
      "outputs": [],
      "payable": false,
      "stateMutability": "nonpayable",
      "type": "function"
    },
    {
      "constant": false,
      "inputs": [
        {
          "name": "_upc",
          "type": "uint256"
        }
      ],
      "name": "purchaseItem",
      "outputs": [],
      "payable": false,
      "stateMutability": "nonpayable",
      "type": "function"
    },
    {
      "constant": true,
      "inputs": [
        {
          "name": "_upc",
          "type": "uint256"
        }
      ],
      "name": "fetchItemBufferOne",
      "outputs": [
        {
          "name": "itemSKU",
          "type": "uint256"
        },
        {
          "name": "itemUPC",
          "type": "uint256"
        },
        {
          "name": "ownerID",
          "type": "address"
        },
        {
          "name": "originFarmerID",
          "type": "address"
        },
        {
          "name": "originFarmName",
          "type": "string"
        },
        {
          "name": "originFarmInformation",
          "type": "string"
        },
        {
          "name": "originFarmLatitude",
          "type": "string"
        },
        {
          "name": "originFarmLongitude",
          "type": "string"
        }
      ],
      "payable": false,
      "stateMutability": "view",
      "type": "function"
    },
    {
      "constant": true,
      "inputs": [
        {
          "name": "_upc",
          "type": "uint256"
        }
      ],
      "name": "fetchItemBufferTwo",
      "outputs": [
        {
          "name": "itemSKU",
          "type": "uint256"
        },
        {
          "name": "itemUPC",
          "type": "uint256"
        },
        {
          "name": "productID",
          "type": "uint256"
        },
        {
          "name": "productNotes",
          "type": "string"
        },
        {
          "name": "productPrice",
          "type": "uint256"
        },
        {
          "name": "itemState",
          "type": "uint256"
        },
        {
          "name": "distributorID",
          "type": "address"
        },
        {
          "name": "retailerID",
          "type": "address"
        },
        {
          "name": "consumerID",
          "type": "address"
        },
        {
          "name": "paidValue",
          "type": "uint256"
        }
      ],
      "payable": false,
      "stateMutability": "view",
      "type": "function"
    },
    {
      "constant": true,
      "inputs": [
        {
          "name": "_upc",
          "type": "uint256"
        }
      ],
      "name": "fetchMsg",
      "outputs": [
        {
          "name": "msgSender",
          "type": "address"
        },
        {
          "name": "msgValue",
          "type": "uint256"
        }
      ],
      "payable": false,
      "stateMutability": "view",
      "type": "function"
    }
  ],
  "bytecode": "0x60806040526200001e3362000075640100000000026401000000009004565b33600160006101000a81548173ffffffffffffffffffffffffffffffffffffffff021916908373ffffffffffffffffffffffffffffffffffffffff1602179055506001600381905550600160028190555062000237565b62000099816000620000df6401000000000262001f4e179091906401000000009004565b8073ffffffffffffffffffffffffffffffffffffffff167fddbf200aa634dc3fb81cfd68583dd1040d1c751d335e1d86b631bde3e977fea860405160405180910390a250565b600073ffffffffffffffffffffffffffffffffffffffff168173ffffffffffffffffffffffffffffffffffffffff16141515156200011c57600080fd5b620001378282620001a2640100000000026401000000009004565b1515156200014457600080fd5b60018260000160008373ffffffffffffffffffffffffffffffffffffffff1673ffffffffffffffffffffffffffffffffffffffff16815260200190815260200160002060006101000a81548160ff0219169083151502179055505050565b60008073ffffffffffffffffffffffffffffffffffffffff168273ffffffffffffffffffffffffffffffffffffffff1614151515620001e057600080fd5b8260000160008373ffffffffffffffffffffffffffffffffffffffff1673ffffffffffffffffffffffffffffffffffffffff16815260200190815260200160002060009054906101000a900460ff16905092915050565b61265180620002476000396000f300608060405260043610620000eb576000357c0100000000000000000000000000000000000000000000000000000000900463ffffffff1680632d92356114620000f057806341c0e1b5146200012a57806349dae7661462000144578063644241db146200017457806366225ff9146200018e5780637250e22414620002fd57806377c4591314620003435780638f0c86fa14620005b05780639979c009146200060e578063a26be999146200063a578063bdd8a6a8146200066a578063d38ea5bf1462000818578063e7865ebb1462000848578063f30fc48014620008bf578063f61c899a14620008ef575b600080fd5b348015620000fd57600080fd5b506200012860048036038101908080359060200190929190803590602001909291905050506200091f565b005b3480156200013757600080fd5b506200014262000a5a565b005b3480156200015157600080fd5b50620001726004803603810190808035906020019092919050505062000aee565b005b3480156200018157600080fd5b506200018c62000c0d565b005b3480156200019b57600080fd5b50620001bc6004803603810190808035906020019092919050505062000c1a565b604051808b81526020018a8152602001898152602001806020018881526020018781526020018673ffffffffffffffffffffffffffffffffffffffff1673ffffffffffffffffffffffffffffffffffffffff1681526020018573ffffffffffffffffffffffffffffffffffffffff1673ffffffffffffffffffffffffffffffffffffffff1681526020018473ffffffffffffffffffffffffffffffffffffffff1673ffffffffffffffffffffffffffffffffffffffff168152602001838152602001828103825289818151815260200191508051906020019080838360005b83811015620002b85780820151818401526020810190506200029b565b50505050905090810190601f168015620002e65780820380516001836020036101000a031916815260200191505b509b50505050505050505050505060405180910390f35b3480156200030a57600080fd5b5062000341600480360381019080803573ffffffffffffffffffffffffffffffffffffffff16906020019092919050505062000e4e565b005b3480156200035057600080fd5b50620003716004803603810190808035906020019092919050505062000e7e565b604051808981526020018881526020018773ffffffffffffffffffffffffffffffffffffffff1673ffffffffffffffffffffffffffffffffffffffff1681526020018673ffffffffffffffffffffffffffffffffffffffff1673ffffffffffffffffffffffffffffffffffffffff16815260200180602001806020018060200180602001858103855289818151815260200191508051906020019080838360005b838110156200042f57808201518184015260208101905062000412565b50505050905090810190601f1680156200045d5780820380516001836020036101000a031916815260200191505b50858103845288818151815260200191508051906020019080838360005b83811015620004985780820151818401526020810190506200047b565b50505050905090810190601f168015620004c65780820380516001836020036101000a031916815260200191505b50858103835287818151815260200191508051906020019080838360005b8381101562000501578082015181840152602081019050620004e4565b50505050905090810190601f1680156200052f5780820380516001836020036101000a031916815260200191505b50858103825286818151815260200191508051906020019080838360005b838110156200056a5780820151818401526020810190506200054d565b50505050905090810190601f168015620005985780820380516001836020036101000a031916815260200191505b509c5050505050505050505050505060405180910390f35b348015620005bd57600080fd5b50620005f4600480360381019080803573ffffffffffffffffffffffffffffffffffffffff16906020019092919050505062001225565b604051808215151515815260200191505060405180910390f35b62000638600480360381019080803590602001909291908035906020019092919050505062001244565b005b3480156200064757600080fd5b506200066860048036038101908080359060200190929190505050620014b2565b005b3480156200067757600080fd5b506200081660048036038101908080359060200190929190803573ffffffffffffffffffffffffffffffffffffffff169060200190929190803590602001908201803590602001908080601f0160208091040260200160405190810160405280939291908181526020018383808284378201915050505050509192919290803590602001908201803590602001908080601f0160208091040260200160405190810160405280939291908181526020018383808284378201915050505050509192919290803590602001908201803590602001908080601f0160208091040260200160405190810160405280939291908181526020018383808284378201915050505050509192919290803590602001908201803590602001908080601f0160208091040260200160405190810160405280939291908181526020018383808284378201915050505050509192919290803590602001908201803590602001908080601f01602080910402602001604051908101604052809392919081815260200183838082843782019150505050505091929192905050506200161c565b005b3480156200082557600080fd5b506200084660048036038101908080359060200190929190505050620019c1565b005b3480156200085557600080fd5b50620008766004803603810190808035906020019092919050505062001b2d565b604051808373ffffffffffffffffffffffffffffffffffffffff1673ffffffffffffffffffffffffffffffffffffffff1681526020018281526020019250505060405180910390f35b348015620008cc57600080fd5b50620008ed6004803603810190808035906020019092919050505062001b41565b005b348015620008fc57600080fd5b506200091d6004803603810190808035906020019092919050505062001c60565b005b81600260078111156200092e57fe5b60046000838152602001908152602001600020600b0160009054906101000a900460ff1660078111156200095e57fe5b1415156200096b57600080fd5b600160009054906101000a900473ffffffffffffffffffffffffffffffffffffffff168073ffffffffffffffffffffffffffffffffffffffff163373ffffffffffffffffffffffffffffffffffffffff16141515620009c957600080fd5b600360046000868152602001908152602001600020600b0160006101000a81548160ff02191690836007811115620009fd57fe5b02179055508260046000868152602001908152602001600020600a01819055507fa96ae0fc3224ebd79eebfe54bd130cc9cb94416cddd1f2386115e00b72532468846040518082815260200191505060405180910390a150505050565b600160009054906101000a900473ffffffffffffffffffffffffffffffffffffffff1673ffffffffffffffffffffffffffffffffffffffff163373ffffffffffffffffffffffffffffffffffffffff16141562000aec57600160009054906101000a900473ffffffffffffffffffffffffffffffffffffffff1673ffffffffffffffffffffffffffffffffffffffff16ff5b565b806000600781111562000afd57fe5b60046000838152602001908152602001600020600b0160009054906101000a900460ff16600781111562000b2d57fe5b14151562000b3a57600080fd5b600160009054906101000a900473ffffffffffffffffffffffffffffffffffffffff168073ffffffffffffffffffffffffffffffffffffffff163373ffffffffffffffffffffffffffffffffffffffff1614151562000b9857600080fd5b600160046000858152602001908152602001600020600b0160006101000a81548160ff0219169083600781111562000bcc57fe5b02179055507f5afe3b1bf87069693c075da5c22a98d63d1aef98a30dbbe538d0781a98b77ee5836040518082815260200191505060405180910390a1505050565b62000c183362001cea565b565b60008060006060600080600080600080600460008c8152602001908152602001600020600001549950600460008c8152602001908152602001600020600101549850600460008c8152602001908152602001600020600801549750600460008c81526020019081526020016000206009018054600181600116156101000203166002900480601f01602080910402602001604051908101604052809291908181526020018280546001816001161561010002031660029004801562000d235780601f1062000cf75761010080835404028352916020019162000d23565b820191906000526020600020905b81548152906001019060200180831162000d0557829003601f168201915b50505050509650600460008c8152602001908152602001600020600a01549550600460008c8152602001908152602001600020600b0160009054906101000a900460ff16600781111562000d7357fe5b9450600460008c8152602001908152602001600020600b0160019054906101000a900473ffffffffffffffffffffffffffffffffffffffff169350600460008c8152602001908152602001600020600c0160009054906101000a900473ffffffffffffffffffffffffffffffffffffffff169250600460008c8152602001908152602001600020600d0160009054906101000a900473ffffffffffffffffffffffffffffffffffffffff1691503490508989898989898989898999509950995099509950995099509950995099509193959799509193959799565b600062000e5a62001e8e565b604051809103906000f08015801562000e77573d6000803e3d6000fd5b5090505050565b600080600080606080606080600460008a8152602001908152602001600020600001549750600460008a8152602001908152602001600020600101549650600460008a815260200190815260200160002060020160009054906101000a900473ffffffffffffffffffffffffffffffffffffffff169550600460008a815260200190815260200160002060030160009054906101000a900473ffffffffffffffffffffffffffffffffffffffff169450600460008a81526020019081526020016000206004018054600181600116156101000203166002900480601f01602080910402602001604051908101604052809291908181526020018280546001816001161561010002031660029004801562000fdc5780601f1062000fb05761010080835404028352916020019162000fdc565b820191906000526020600020905b81548152906001019060200180831162000fbe57829003601f168201915b50505050509350600460008a81526020019081526020016000206005018054600181600116156101000203166002900480601f016020809104026020016040519081016040528092919081815260200182805460018160011615610100020316600290048015620010915780601f10620010655761010080835404028352916020019162001091565b820191906000526020600020905b8154815290600101906020018083116200107357829003601f168201915b50505050509250600460008a81526020019081526020016000206006018054600181600116156101000203166002900480601f016020809104026020016040519081016040528092919081815260200182805460018160011615610100020316600290048015620011465780601f106200111a5761010080835404028352916020019162001146565b820191906000526020600020905b8154815290600101906020018083116200112857829003601f168201915b50505050509150600460008a81526020019081526020016000206007018054600181600116156101000203166002900480601f016020809104026020016040519081016040528092919081815260200182805460018160011615610100020316600290048015620011fb5780601f10620011cf57610100808354040283529160200191620011fb565b820191906000526020600020905b815481529060010190602001808311620011dd57829003601f168201915b50505050509050878787878787878797509750975097509750975097509750919395975091939597565b60006200123d82600062001d4690919063ffffffff16565b9050919050565b81600360078111156200125357fe5b60046000838152602001908152602001600020600b0160009054906101000a900460ff1660078111156200128357fe5b1415156200129057600080fd5b81803410151515620012a157600080fd5b83600080336004600089815260200190815260200160002060020160006101000a81548173ffffffffffffffffffffffffffffffffffffffff021916908373ffffffffffffffffffffffffffffffffffffffff1602179055503360046000898152602001908152602001600020600b0160016101000a81548173ffffffffffffffffffffffffffffffffffffffff021916908373ffffffffffffffffffffffffffffffffffffffff1602179055506004806000898152602001908152602001600020600b0160006101000a81548160ff021916908360078111156200138257fe5b0217905550346005819055503373ffffffffffffffffffffffffffffffffffffffff166108fc879081150290604051600060405180830381858888f19350505050158015620013d5573d6000803e3d6000fd5b507f92f64ca637d023f354075a4be751b169c1a8a9ccb6d33cdd0cb3520543995727876040518082815260200191505060405180910390a160046000848152602001908152602001600020600a01549150813403905060046000848152602001908152602001600020600d0160009054906101000a900473ffffffffffffffffffffffffffffffffffffffff1673ffffffffffffffffffffffffffffffffffffffff166108fc829081150290604051600060405180830381858888f19350505050158015620014a8573d6000803e3d6000fd5b5050505050505050565b8060056007811115620014c157fe5b60046000838152602001908152602001600020600b0160009054906101000a900460ff166007811115620014f157fe5b141515620014fe57600080fd5b3360046000848152602001908152602001600020600c0160006101000a81548173ffffffffffffffffffffffffffffffffffffffff021916908373ffffffffffffffffffffffffffffffffffffffff160217905550336004600084815260200190815260200160002060020160006101000a81548173ffffffffffffffffffffffffffffffffffffffff021916908373ffffffffffffffffffffffffffffffffffffffff160217905550600660046000848152602001908152602001600020600b0160006101000a81548160ff02191690836007811115620015dc57fe5b02179055507fa8142743f8f70a4c26f3691cf4ed59718381fb2f18070ec52be1f1022d855557826040518082815260200191505060405180910390a15050565b6101e06040519081016040528060035481526020018881526020018773ffffffffffffffffffffffffffffffffffffffff1681526020018773ffffffffffffffffffffffffffffffffffffffff1681526020018681526020018581526020018481526020018381526020016002546003540181526020018281526020016000815260200160006007811115620016ae57fe5b8152602001600073ffffffffffffffffffffffffffffffffffffffff168152602001600073ffffffffffffffffffffffffffffffffffffffff168152602001600073ffffffffffffffffffffffffffffffffffffffff1681525060046000898152602001908152602001600020600082015181600001556020820151816001015560408201518160020160006101000a81548173ffffffffffffffffffffffffffffffffffffffff021916908373ffffffffffffffffffffffffffffffffffffffff16021790555060608201518160030160006101000a81548173ffffffffffffffffffffffffffffffffffffffff021916908373ffffffffffffffffffffffffffffffffffffffff1602179055506080820151816004019080519060200190620017db92919062001e9f565b5060a0820151816005019080519060200190620017fa92919062001e9f565b5060c08201518160060190805190602001906200181992919062001e9f565b5060e08201518160070190805190602001906200183892919062001e9f565b5061010082015181600801556101208201518160090190805190602001906200186392919062001e9f565b5061014082015181600a015561016082015181600b0160006101000a81548160ff021916908360078111156200189557fe5b021790555061018082015181600b0160016101000a81548173ffffffffffffffffffffffffffffffffffffffff021916908373ffffffffffffffffffffffffffffffffffffffff1602179055506101a082015181600c0160006101000a81548173ffffffffffffffffffffffffffffffffffffffff021916908373ffffffffffffffffffffffffffffffffffffffff1602179055506101c082015181600d0160006101000a81548173ffffffffffffffffffffffffffffffffffffffff021916908373ffffffffffffffffffffffffffffffffffffffff1602179055509050506001600354016003819055507f8e55ccfc9778ff8eba1646d765cf1982537ce0f9257054a17b48aad745250183876040518082815260200191505060405180910390a150505050505050565b60025460066007811115620019d257fe5b60046000838152602001908152602001600020600b0160009054906101000a900460ff16600781111562001a0257fe5b14151562001a0f57600080fd5b336004600084815260200190815260200160002060020160006101000a81548173ffffffffffffffffffffffffffffffffffffffff021916908373ffffffffffffffffffffffffffffffffffffffff1602179055503360046000848152602001908152602001600020600d0160006101000a81548173ffffffffffffffffffffffffffffffffffffffff021916908373ffffffffffffffffffffffffffffffffffffffff160217905550600760046000848152602001908152602001600020600b0160006101000a81548160ff0219169083600781111562001aed57fe5b02179055507f653d56639fee6b566a5c804764e9689de38645f0b733df89a36a1b7b42173dd8826040518082815260200191505060405180910390a15050565b600080339150349050818191509150915091565b806001600781111562001b5057fe5b60046000838152602001908152602001600020600b0160009054906101000a900460ff16600781111562001b8057fe5b14151562001b8d57600080fd5b600160009054906101000a900473ffffffffffffffffffffffffffffffffffffffff168073ffffffffffffffffffffffffffffffffffffffff163373ffffffffffffffffffffffffffffffffffffffff1614151562001beb57600080fd5b600260046000858152602001908152602001600020600b0160006101000a81548160ff0219169083600781111562001c1f57fe5b02179055507f9b3b66e2380b690bae22c73ef1428fb0c91e72fe14a4b6defa13035214187aff836040518082815260200191505060405180910390a1505050565b62001c6b3362001225565b151562001c7757600080fd5b600560046000838152602001908152602001600020600b0160006101000a81548160ff0219169083600781111562001cab57fe5b02179055507ff00b9a5725b80c54016f42114f6ed7792d22eecb116011c4afac29c57bef6c95816040518082815260200191505060405180910390a150565b62001d0081600062001ddb90919063ffffffff16565b8073ffffffffffffffffffffffffffffffffffffffff167f126174f6cf49c81cdb4a9214c6b8f037bef55b4ec31e4fc776cea2a1c8a88d5960405160405180910390a250565b60008073ffffffffffffffffffffffffffffffffffffffff168273ffffffffffffffffffffffffffffffffffffffff161415151562001d8457600080fd5b8260000160008373ffffffffffffffffffffffffffffffffffffffff1673ffffffffffffffffffffffffffffffffffffffff16815260200190815260200160002060009054906101000a900460ff16905092915050565b600073ffffffffffffffffffffffffffffffffffffffff168173ffffffffffffffffffffffffffffffffffffffff161415151562001e1857600080fd5b62001e24828262001d46565b151562001e3057600080fd5b60008260000160008373ffffffffffffffffffffffffffffffffffffffff1673ffffffffffffffffffffffffffffffffffffffff16815260200190815260200160002060006101000a81548160ff0219169083151502179055505050565b604051610623806200200383390190565b828054600181600116156101000203166002900490600052602060002090601f016020900481019282601f1062001ee257805160ff191683800117855562001f13565b8280016001018555821562001f13579182015b8281111562001f1257825182559160200191906001019062001ef5565b5b50905062001f22919062001f26565b5090565b62001f4b91905b8082111562001f4757600081600090555060010162001f2d565b5090565b90565b600073ffffffffffffffffffffffffffffffffffffffff168173ffffffffffffffffffffffffffffffffffffffff161415151562001f8b57600080fd5b62001f97828262001d46565b15151562001fa457600080fd5b60018260000160008373ffffffffffffffffffffffffffffffffffffffff1673ffffffffffffffffffffffffffffffffffffffff16815260200190815260200160002060006101000a81548160ff02191690831515021790555050505600608060405234801561001057600080fd5b506100293361002e640100000000026401000000009004565b6101e8565b61004f81600061009564010000000002610350179091906401000000009004565b8073ffffffffffffffffffffffffffffffffffffffff167fddbf200aa634dc3fb81cfd68583dd1040d1c751d335e1d86b631bde3e977fea860405160405180910390a250565b600073ffffffffffffffffffffffffffffffffffffffff168173ffffffffffffffffffffffffffffffffffffffff16141515156100d157600080fd5b6100ea8282610154640100000000026401000000009004565b1515156100f657600080fd5b60018260000160008373ffffffffffffffffffffffffffffffffffffffff1673ffffffffffffffffffffffffffffffffffffffff16815260200190815260200160002060006101000a81548160ff0219169083151502179055505050565b60008073ffffffffffffffffffffffffffffffffffffffff168273ffffffffffffffffffffffffffffffffffffffff161415151561019157600080fd5b8260000160008373ffffffffffffffffffffffffffffffffffffffff1673ffffffffffffffffffffffffffffffffffffffff16815260200190815260200160002060009054906101000a900460ff16905092915050565b61042c806101f76000396000f300608060405260043610610057576000357c0100000000000000000000000000000000000000000000000000000000900463ffffffff168063644241db1461005c5780637250e224146100735780638f0c86fa146100b6575b600080fd5b34801561006857600080fd5b50610071610111565b005b34801561007f57600080fd5b506100b4600480360381019080803573ffffffffffffffffffffffffffffffffffffffff16906020019092919050505061011c565b005b3480156100c257600080fd5b506100f7600480360381019080803573ffffffffffffffffffffffffffffffffffffffff16906020019092919050505061013c565b604051808215151515815260200191505060405180910390f35b61011a33610159565b565b6101253361013c565b151561013057600080fd5b610139816101b3565b50565b600061015282600061020d90919063ffffffff16565b9050919050565b61016d8160006102a190919063ffffffff16565b8073ffffffffffffffffffffffffffffffffffffffff167f126174f6cf49c81cdb4a9214c6b8f037bef55b4ec31e4fc776cea2a1c8a88d5960405160405180910390a250565b6101c781600061035090919063ffffffff16565b8073ffffffffffffffffffffffffffffffffffffffff167fddbf200aa634dc3fb81cfd68583dd1040d1c751d335e1d86b631bde3e977fea860405160405180910390a250565b60008073ffffffffffffffffffffffffffffffffffffffff168273ffffffffffffffffffffffffffffffffffffffff161415151561024a57600080fd5b8260000160008373ffffffffffffffffffffffffffffffffffffffff1673ffffffffffffffffffffffffffffffffffffffff16815260200190815260200160002060009054906101000a900460ff16905092915050565b600073ffffffffffffffffffffffffffffffffffffffff168173ffffffffffffffffffffffffffffffffffffffff16141515156102dd57600080fd5b6102e7828261020d565b15156102f257600080fd5b60008260000160008373ffffffffffffffffffffffffffffffffffffffff1673ffffffffffffffffffffffffffffffffffffffff16815260200190815260200160002060006101000a81548160ff0219169083151502179055505050565b600073ffffffffffffffffffffffffffffffffffffffff168173ffffffffffffffffffffffffffffffffffffffff161415151561038c57600080fd5b610396828261020d565b1515156103a257600080fd5b60018260000160008373ffffffffffffffffffffffffffffffffffffffff1673ffffffffffffffffffffffffffffffffffffffff16815260200190815260200160002060006101000a81548160ff02191690831515021790555050505600a165627a7a72305820c89f3ec8641a2d479141ef8b61958db7053f7cfe7f70f5c2356650c6225e978a0029a165627a7a723058202ec12abd6d0e35367c89d84e0f3c7726b593c3d7f04804448a19c47b71e7a8750029",
  "source": "pragma solidity ^0.4.24;\n// Define a contract 'Supplychain'\n\nimport \"../coffeeaccesscontrol/DistributorRole.sol\";\n\ncontract SupplyChain is DistributorRole {\n\n// Define 'owner'\naddress owner;\n\n// Define a variable called 'upc' for Universal Product Code (UPC)\nuint  upc;\n\n// Define a variable called 'sku' for Stock Keeping Unit (SKU)\nuint  sku;\n\n// Define a public mapping 'items' that maps the UPC to an Item.\nmapping (uint => Item) items;\n\nuint paidValue;\n// Define a public mapping 'itemsHistory' that maps the UPC to an array of TxHash, \n// that track its journey through the supply chain -- to be sent from DApp.\n\n// TODO: use items history mapping\nmapping (uint => string[]) itemsHistory;\n\n// Define enum 'State' with the following values:\nenum State \n{ \nHarvested,  // 0\nProcessed,  // 1\nPacked,     // 2\nForSale,    // 3\nSold,       // 4\nShipped,    // 5\nReceived,   // 6\nPurchased   // 7\n}\n\nState constant defaultState = State.Harvested;\n\n// Define a struct 'Item' with the following fields:\nstruct Item {\nuint    sku;  // Stock Keeping Unit (SKU)\nuint    upc; // Universal Product Code (UPC), generated by the Farmer, goes on the package, can be verified by the Consumer\naddress ownerID;  // Metamask-Ethereum address of the current owner as the product moves through 8 stages\naddress originFarmerID; // Metamask-Ethereum address of the Farmer\nstring  originFarmName; // Farmer Name\nstring  originFarmInformation;  // Farmer Information\nstring  originFarmLatitude; // Farm Latitude\nstring  originFarmLongitude;  // Farm Longitude\nuint    productID;  // Product ID potentially a combination of upc + sku\nstring  productNotes; // Product Notes\nuint    productPrice; // Product Price\nState   itemState;  // Product State as represented in the enum above\naddress distributorID;  // Metamask-Ethereum address of the Distributor\naddress retailerID; // Metamask-Ethereum address of the Retailer\naddress consumerID; // Metamask-Ethereum address of the Consumer\n}\n\n// Define 8 events with the same 8 state values and accept 'upc' as input argument\nevent Harvested(uint upc);\nevent Processed(uint upc);\nevent Packed(uint upc);\nevent ForSale(uint upc);\nevent Sold(uint upc);\nevent Shipped(uint upc);\nevent Received(uint upc);\nevent Purchased(uint upc);\n\n// Define a modifer that checks to see if msg.sender == owner of the contract\nmodifier onlyOwner() {\n\trequire(msg.sender == owner);\n\t_;\n}\n\n// Define a modifer that verifies the Caller\nmodifier verifyCaller (address _address) {\n\trequire(msg.sender == _address); \n\t_;\n}\n\n// Define a modifier that checks if the paid amount is sufficient to cover the price\nmodifier paidEnough(uint _price) { \n\trequire(msg.value >= _price); \n\t_;\n}\n\n// Define a modifier that checks the price and refunds the remaining balance\nmodifier checkValue(uint _upc) {\n\t_;\n\tuint _price = items[_upc].productPrice;\n\tuint amountToReturn = msg.value - _price;\n\titems[_upc].consumerID.transfer(amountToReturn);\n}\n\n// Define a modifier that checks if an item.state of a upc is Harvested\nmodifier harvested(uint _upc) {\n\trequire(items[_upc].itemState == State.Harvested);\n\t_;\n}\n\n// Define a modifier that checks if an item.state of a upc is Processed\nmodifier processed(uint _upc) {\n\trequire(items[_upc].itemState== State.Processed);\n\t_;\n}\n\n// Define a modifier that checks if an item.state of a upc is Packed\nmodifier packed(uint _upc) {\n\trequire(items[_upc].itemState== State.Packed);\n\t_;\n}\n\n// Define a modifier that checks if an item.state of a upc is ForSale\nmodifier forSale(uint _upc) {\n\trequire(items[_upc].itemState== State.ForSale);\n\t_;\n}\n\n// Define a modifier that checks if an item.state of a upc is Sold\nmodifier sold(uint _upc) {\n\trequire(items[_upc].itemState== State.Sold);\n\t_;\n}\n\n// Define a modifier that checks if an item.state of a upc is Shipped\nmodifier shipped(uint _upc) {\n\n\t//check that it is shipped\n\trequire(items[_upc].itemState== State.Shipped);\n\t_;\n}\n\n// Define a modifier that checks if an item.state of a upc is Received\nmodifier received(uint _upc) {\n\trequire(items[_upc].itemState== State.Received);\n\t_;\n}\n\n// Define a modifier that checks if an item.state of a upc is Purchased\nmodifier purchased(uint _upc) {\n\trequire(items[_upc].itemState== State.Purchased);\n\t_;\n}\n\n// In the constructor set 'owner' to the address that instantiated the contract\n// and set 'sku' to 1\n// and set 'upc' to 1\nconstructor() public payable {\n\towner = msg.sender;\n\tsku = 1;\n\tupc = 1;\n}\n\n// Define a function 'kill' if required\nfunction kill() public {\n\tif (msg.sender == owner) {\n\t\tselfdestruct(owner);\n\t}\n}\n\nfunction addDistributor(address distributorID) {\n\tDistributorRole distributor=new DistributorRole();\n}\n/* \nHarvested,  // 0\nProcessed,  // 1\nPacked,     // 2\nForSale,    // 3\nSold,       // 4\nShipped,    // 5\nReceived,   // 6\nPurchased   // 7 \n*/\n// Define a function 'harvestItem' that allows a farmer to mark an item 'Harvested'\nfunction harvestItem(uint _upc, address _originFarmerID, string _originFarmName, string _originFarmInformation, string  _originFarmLatitude, string  _originFarmLongitude, string  _productNotes) public \n{\n// Add the new item as part of Harvest\n\nitems[_upc]=Item({ sku:sku,upc:_upc,ownerID:_originFarmerID,originFarmerID:_originFarmerID,originFarmName:_originFarmName,originFarmInformation:_originFarmInformation,originFarmLatitude:_originFarmLatitude,originFarmLongitude:_originFarmLongitude,productID:sku+upc,productNotes:_productNotes,productPrice:0,itemState:State.Harvested,distributorID:0,retailerID:0,consumerID:0});\n\n// Increment sku\nsku = sku + 1;\n// Emit the appropriate event\nemit Harvested(_upc);\n\n}\n\n// Define a function 'processtItem' that allows a farmer to mark an item 'Processed'\nfunction processItem(uint _upc) harvested(_upc) verifyCaller(owner) public \n// Call modifier to check if upc has passed previous supply chain stage\n\n// Call modifier to verify caller of this function\n\n{\n// Update the appropriate fields\nitems[_upc].itemState = State.Processed;\n\n\n// Emit the appropriate event\nemit Processed(_upc);\n}\n\n// Define a function 'packItem' that allows a farmer to mark an item 'Packed'\nfunction packItem(uint _upc) processed(_upc) verifyCaller(owner) public \n// Call modifier to check if upc has passed previous supply chain stage\n\n// Call modifier to verify caller of this function\n\n{\n// Update the appropriate fields\nitems[_upc].itemState = State.Packed;\n\n// Emit the appropriate event\nemit Packed(_upc);\n\n}\n\n// Define a function 'sellItem' that allows a farmer to mark an item 'ForSale'\nfunction sellItem(uint _upc, uint _price) packed(_upc) verifyCaller(owner) public \n// Call modifier to check if upc has passed previous supply chain stage\n\n// Call modifier to verify caller of this function\n\n{\n// Update the appropriate fields\nitems[_upc].itemState = State.ForSale;\nitems[_upc].productPrice = _price;\n// Emit the appropriate event\nemit ForSale(_upc);\n\n}\n\n// Define a function 'buyItem' that allows the disributor to mark an item 'Sold'\n// Use the above defined modifiers to check if the item is available for sale, if the buyer has paid enough, \n// and any excess ether sent is refunded back to the buyer\nfunction buyItem(uint _upc,uint _price) forSale(_upc) paidEnough(_price) checkValue(_upc)  public payable \n// Call modifier to check if upc has passed previous supply chain stage\n\n// Call modifer to check if buyer has paid enough\n\n// Call modifer to send any excess ether back to buyer\n\n{\n\n// Update the appropriate fields - ownerID, distributorID, itemState\nitems[_upc].ownerID = msg.sender;\nitems[_upc].distributorID = msg.sender;\nitems[_upc].itemState = State.Sold;\n\npaidValue = msg.value;\n\n// Transfer money to farmer\nmsg.sender.transfer(_price);\n\n// emit the appropriate event\nemit Sold(_upc);\n}\n\n// Define a function 'shipItem' that allows the distributor to mark an item 'Shipped'\n// Use the above modifers to check if the item is sold\nfunction shipItem(uint _upc)  onlyDistributor() public \n// Call modifier to check if upc has passed previous supply chain stage\n\n// Call modifier to verify caller of this function\n\n{\n// Update the appropriate fields\nitems[_upc].itemState = State.Shipped;\n\n// Emit the appropriate event\nemit Shipped(_upc);\n\n}\n\n// Define a function 'receiveItem' that allows the retailer to mark an item 'Received'\n// Use the above modifiers to check if the item is shipped\nfunction receiveItem(uint _upc) shipped(_upc) public \n// Call modifier to check if upc has passed previous supply chain stage\n\n// TODO: Access Control List enforced by calling Smart Contract / DApp\n{\n// Update the appropriate fields - ownerID, retailerID, itemState\nitems[_upc].retailerID = msg.sender;\nitems[_upc].ownerID = msg.sender;\nitems[_upc].itemState = State.Received;\n\n// Emit the appropriate event\nemit Received(_upc);\n\n\n}\n\n// Define a function 'purchaseItem' that allows the consumer to mark an item 'Purchased'\n// Use the above modifiers to check if the item is received\nfunction purchaseItem(uint _upc) received(upc) public \n// Call modifier to check if upc has passed previous supply chain stage\n\n// TODO: Access Control List enforced by calling Smart Contract / DApp\n{\n// Update the appropriate fields - ownerID, consumerID, itemState\nitems[_upc].ownerID = msg.sender;\nitems[_upc].consumerID = msg.sender;\nitems[_upc].itemState = State.Purchased;\n// Emit the appropriate event\nemit Purchased(_upc);\n}\n\n// Define a function 'fetchItemBufferOne' that fetches the data\nfunction fetchItemBufferOne(uint _upc) public view returns \n(\n\tuint    itemSKU,\n\tuint    itemUPC,\n\taddress ownerID,\n\taddress originFarmerID,\n\tstring  originFarmName,\n\tstring  originFarmInformation,\n\tstring  originFarmLatitude,\n\tstring  originFarmLongitude\n\t) \n{\n// Assign values to the 8 parameters\nitemSKU = items[_upc].sku;//0\nitemUPC = items[_upc].upc;//1\nownerID = items[_upc].ownerID;//2\noriginFarmerID = items[_upc].originFarmerID;//3\n\noriginFarmName = items[_upc].originFarmName;//4\noriginFarmInformation = items[_upc].originFarmInformation;//5\noriginFarmLatitude = items[_upc].originFarmLatitude;//6\noriginFarmLongitude = items[_upc].originFarmLongitude;//7\n\nreturn \n(\n\titemSKU,\n\titemUPC,\n\townerID,\n\toriginFarmerID,\n\toriginFarmName,\n\toriginFarmInformation,\n\toriginFarmLatitude,\n\toriginFarmLongitude\n\t);\n}\n\n// Define a function 'fetchItemBufferTwo' that fetches the data\nfunction fetchItemBufferTwo(uint _upc) public view returns \n(\n\tuint    itemSKU,\n\tuint    itemUPC,\n\tuint    productID,\n\tstring  productNotes,\n\tuint    productPrice,\n\tuint    itemState,\n\taddress distributorID,\n\taddress retailerID,\n\taddress consumerID,\n    uint    paidValue\n\t) \n{\n// Assign values to the 9 parameters\nitemSKU = items[_upc].sku; //0\nitemUPC = items[_upc].upc; //1\nproductID = items[_upc].productID; //2\nproductNotes = items[_upc].productNotes; //3\n\nproductPrice = items[_upc].productPrice; //4\nitemState = uint(items[_upc].itemState); //5\ndistributorID = items[_upc].distributorID; //6\nretailerID = items[_upc].retailerID; //7\n\nconsumerID = items[_upc].consumerID; //8\n\npaidValue = msg.value; //9\nreturn \n(\n\titemSKU,\n\titemUPC,\n\tproductID,\n\tproductNotes,\n\tproductPrice,\n\titemState,\n\tdistributorID,\n\tretailerID,\n\tconsumerID,\n\tpaidValue\n\t);\n}\n\n// Define a function 'fetchItemBufferOne' that fetches the data\nfunction fetchMsg(uint _upc) public view returns \n(\n\taddress    msgSender,\n\tuint    msgValue\n) \n{\n// Assign values to the 8 parameters\nmsgSender = msg.sender;//0\nmsgValue = msg.value;//1\n \n \nreturn \n(\n\tmsgSender,\n\tmsgValue\n);\n}\n\n// event test_value(uint256 indexed value1);\n// uint256 value_test;\n\n// function test_f()  {\n\n//   //value_test processing\n//   test_value(value_test); // log the current value\n\n// }\n}\n",
  "sourcePath": "/Users/mac/Documents/Development/Blockchain/Architect-Blockchain-Supply-Chain-project-6-B/contracts/coffeebase/SupplyChain.sol",
  "compiler": {
    "name": "solc",
    "version": "0.4.25+commit.59dbf8f1.Emscripten.clang"
  },
  "schemaVersion": "2.0.2",
  "updatedAt": "2019-04-17T18:43:25.316Z"
}