{
  "contractName": "SupplyChain",
  "abi": [
    {
      "inputs": [],
      "payable": true,
      "stateMutability": "payable",
      "type": "constructor"
    },
    {
      "anonymous": false,
      "inputs": [
        {
          "indexed": false,
          "name": "upc",
          "type": "uint256"
        }
      ],
      "name": "Harvested",
      "type": "event"
    },
    {
      "anonymous": false,
      "inputs": [
        {
          "indexed": false,
          "name": "upc",
          "type": "uint256"
        }
      ],
      "name": "Processed",
      "type": "event"
    },
    {
      "anonymous": false,
      "inputs": [
        {
          "indexed": false,
          "name": "upc",
          "type": "uint256"
        }
      ],
      "name": "Packed",
      "type": "event"
    },
    {
      "anonymous": false,
      "inputs": [
        {
          "indexed": false,
          "name": "upc",
          "type": "uint256"
        }
      ],
      "name": "ForSale",
      "type": "event"
    },
    {
      "anonymous": false,
      "inputs": [
        {
          "indexed": false,
          "name": "upc",
          "type": "uint256"
        }
      ],
      "name": "Sold",
      "type": "event"
    },
    {
      "anonymous": false,
      "inputs": [
        {
          "indexed": false,
          "name": "upc",
          "type": "uint256"
        }
      ],
      "name": "Shipped",
      "type": "event"
    },
    {
      "anonymous": false,
      "inputs": [
        {
          "indexed": false,
          "name": "upc",
          "type": "uint256"
        }
      ],
      "name": "Received",
      "type": "event"
    },
    {
      "anonymous": false,
      "inputs": [
        {
          "indexed": false,
          "name": "upc",
          "type": "uint256"
        }
      ],
      "name": "Purchased",
      "type": "event"
    },
    {
      "constant": false,
      "inputs": [],
      "name": "kill",
      "outputs": [],
      "payable": false,
      "stateMutability": "nonpayable",
      "type": "function"
    },
    {
      "constant": false,
      "inputs": [
        {
          "name": "_upc",
          "type": "uint256"
        },
        {
          "name": "_originFarmerID",
          "type": "address"
        },
        {
          "name": "_originFarmName",
          "type": "string"
        },
        {
          "name": "_originFarmInformation",
          "type": "string"
        },
        {
          "name": "_originFarmLatitude",
          "type": "string"
        },
        {
          "name": "_originFarmLongitude",
          "type": "string"
        },
        {
          "name": "_productNotes",
          "type": "string"
        }
      ],
      "name": "harvestItem",
      "outputs": [],
      "payable": false,
      "stateMutability": "nonpayable",
      "type": "function"
    },
    {
      "constant": false,
      "inputs": [
        {
          "name": "_upc",
          "type": "uint256"
        }
      ],
      "name": "processItem",
      "outputs": [],
      "payable": false,
      "stateMutability": "nonpayable",
      "type": "function"
    },
    {
      "constant": false,
      "inputs": [
        {
          "name": "_upc",
          "type": "uint256"
        }
      ],
      "name": "packItem",
      "outputs": [],
      "payable": false,
      "stateMutability": "nonpayable",
      "type": "function"
    },
    {
      "constant": false,
      "inputs": [
        {
          "name": "_upc",
          "type": "uint256"
        },
        {
          "name": "_price",
          "type": "uint256"
        }
      ],
      "name": "sellItem",
      "outputs": [],
      "payable": false,
      "stateMutability": "nonpayable",
      "type": "function"
    },
    {
      "constant": false,
      "inputs": [
        {
          "name": "_upc",
          "type": "uint256"
        },
        {
          "name": "_price",
          "type": "uint256"
        }
      ],
      "name": "buyItem",
      "outputs": [],
      "payable": true,
      "stateMutability": "payable",
      "type": "function"
    },
    {
      "constant": false,
      "inputs": [
        {
          "name": "_upc",
          "type": "uint256"
        }
      ],
      "name": "shipItem",
      "outputs": [],
      "payable": false,
      "stateMutability": "nonpayable",
      "type": "function"
    },
    {
      "constant": false,
      "inputs": [
        {
          "name": "_upc",
          "type": "uint256"
        }
      ],
      "name": "receiveItem",
      "outputs": [],
      "payable": false,
      "stateMutability": "nonpayable",
      "type": "function"
    },
    {
      "constant": false,
      "inputs": [
        {
          "name": "_upc",
          "type": "uint256"
        }
      ],
      "name": "purchaseItem",
      "outputs": [],
      "payable": false,
      "stateMutability": "nonpayable",
      "type": "function"
    },
    {
      "constant": true,
      "inputs": [
        {
          "name": "_upc",
          "type": "uint256"
        }
      ],
      "name": "fetchItemBufferOne",
      "outputs": [
        {
          "name": "itemSKU",
          "type": "uint256"
        },
        {
          "name": "itemUPC",
          "type": "uint256"
        },
        {
          "name": "ownerID",
          "type": "address"
        },
        {
          "name": "originFarmerID",
          "type": "address"
        },
        {
          "name": "originFarmName",
          "type": "string"
        },
        {
          "name": "originFarmInformation",
          "type": "string"
        },
        {
          "name": "originFarmLatitude",
          "type": "string"
        },
        {
          "name": "originFarmLongitude",
          "type": "string"
        }
      ],
      "payable": false,
      "stateMutability": "view",
      "type": "function"
    },
    {
      "constant": true,
      "inputs": [
        {
          "name": "_upc",
          "type": "uint256"
        }
      ],
      "name": "fetchItemBufferTwo",
      "outputs": [
        {
          "name": "itemSKU",
          "type": "uint256"
        },
        {
          "name": "itemUPC",
          "type": "uint256"
        },
        {
          "name": "productID",
          "type": "uint256"
        },
        {
          "name": "productNotes",
          "type": "string"
        },
        {
          "name": "productPrice",
          "type": "uint256"
        },
        {
          "name": "itemState",
          "type": "uint256"
        },
        {
          "name": "distributorID",
          "type": "address"
        },
        {
          "name": "retailerID",
          "type": "address"
        },
        {
          "name": "consumerID",
          "type": "address"
        },
        {
          "name": "paidValue",
          "type": "uint256"
        }
      ],
      "payable": false,
      "stateMutability": "view",
      "type": "function"
    },
    {
      "constant": true,
      "inputs": [
        {
          "name": "_upc",
          "type": "uint256"
        }
      ],
      "name": "fetchMsg",
      "outputs": [
        {
          "name": "msgSender",
          "type": "address"
        },
        {
          "name": "msgValue",
          "type": "uint256"
        }
      ],
      "payable": false,
      "stateMutability": "view",
      "type": "function"
    }
  ],
  "bytecode": "0x6080604052336000806101000a81548173ffffffffffffffffffffffffffffffffffffffff021916908373ffffffffffffffffffffffffffffffffffffffff160217905550600160028190555060018081905550611be1806100626000396000f3006080604052600436106100ba576000357c0100000000000000000000000000000000000000000000000000000000900463ffffffff1680632d923561146100bf57806341c0e1b5146100f657806349dae7661461010d57806366225ff91461013a57806377c45913146102a35780639979c00914610501578063a26be9991461052b578063bdd8a6a814610558578063d38ea5bf14610703578063e7865ebb14610730578063f30fc480146107a4578063f61c899a146107d1575b600080fd5b3480156100cb57600080fd5b506100f460048036038101908080359060200190929190803590602001909291905050506107fe565b005b34801561010257600080fd5b5061010b610932565b005b34801561011957600080fd5b50610138600480360381019080803590602001909291905050506109c3565b005b34801561014657600080fd5b5061016560048036038101908080359060200190929190505050610adc565b604051808b81526020018a8152602001898152602001806020018881526020018781526020018673ffffffffffffffffffffffffffffffffffffffff1673ffffffffffffffffffffffffffffffffffffffff1681526020018573ffffffffffffffffffffffffffffffffffffffff1673ffffffffffffffffffffffffffffffffffffffff1681526020018473ffffffffffffffffffffffffffffffffffffffff1673ffffffffffffffffffffffffffffffffffffffff168152602001838152602001828103825289818151815260200191508051906020019080838360005b8381101561025f578082015181840152602081019050610244565b50505050905090810190601f16801561028c5780820380516001836020036101000a031916815260200191505b509b50505050505050505050505060405180910390f35b3480156102af57600080fd5b506102ce60048036038101908080359060200190929190505050610d0b565b604051808981526020018881526020018773ffffffffffffffffffffffffffffffffffffffff1673ffffffffffffffffffffffffffffffffffffffff1681526020018673ffffffffffffffffffffffffffffffffffffffff1673ffffffffffffffffffffffffffffffffffffffff16815260200180602001806020018060200180602001858103855289818151815260200191508051906020019080838360005b8381101561038a57808201518184015260208101905061036f565b50505050905090810190601f1680156103b75780820380516001836020036101000a031916815260200191505b50858103845288818151815260200191508051906020019080838360005b838110156103f05780820151818401526020810190506103d5565b50505050905090810190601f16801561041d5780820380516001836020036101000a031916815260200191505b50858103835287818151815260200191508051906020019080838360005b8381101561045657808201518184015260208101905061043b565b50505050905090810190601f1680156104835780820380516001836020036101000a031916815260200191505b50858103825286818151815260200191508051906020019080838360005b838110156104bc5780820151818401526020810190506104a1565b50505050905090810190601f1680156104e95780820380516001836020036101000a031916815260200191505b509c5050505050505050505050505060405180910390f35b61052960048036038101908080359060200190929190803590602001909291905050506110a2565b005b34801561053757600080fd5b506105566004803603810190808035906020019092919050505061130a565b005b34801561056457600080fd5b5061070160048036038101908080359060200190929190803573ffffffffffffffffffffffffffffffffffffffff169060200190929190803590602001908201803590602001908080601f0160208091040260200160405190810160405280939291908181526020018383808284378201915050505050509192919290803590602001908201803590602001908080601f0160208091040260200160405190810160405280939291908181526020018383808284378201915050505050509192919290803590602001908201803590602001908080601f0160208091040260200160405190810160405280939291908181526020018383808284378201915050505050509192919290803590602001908201803590602001908080601f0160208091040260200160405190810160405280939291908181526020018383808284378201915050505050509192919290803590602001908201803590602001908080601f0160208091040260200160405190810160405280939291908181526020018383808284378201915050505050509192919290505050611470565b005b34801561070f57600080fd5b5061072e60048036038101908080359060200190929190505050611809565b005b34801561073c57600080fd5b5061075b60048036038101908080359060200190929190505050611971565b604051808373ffffffffffffffffffffffffffffffffffffffff1673ffffffffffffffffffffffffffffffffffffffff1681526020018281526020019250505060405180910390f35b3480156107b057600080fd5b506107cf60048036038101908080359060200190929190505050611985565b005b3480156107dd57600080fd5b506107fc60048036038101908080359060200190929190505050611a9e565b005b816002600781111561080c57fe5b60036000838152602001908152602001600020600b0160009054906101000a900460ff16600781111561083b57fe5b14151561084757600080fd5b6000809054906101000a900473ffffffffffffffffffffffffffffffffffffffff168073ffffffffffffffffffffffffffffffffffffffff163373ffffffffffffffffffffffffffffffffffffffff161415156108a357600080fd5b6003806000868152602001908152602001600020600b0160006101000a81548160ff021916908360078111156108d557fe5b02179055508260036000868152602001908152602001600020600a01819055507fa96ae0fc3224ebd79eebfe54bd130cc9cb94416cddd1f2386115e00b72532468846040518082815260200191505060405180910390a150505050565b6000809054906101000a900473ffffffffffffffffffffffffffffffffffffffff1673ffffffffffffffffffffffffffffffffffffffff163373ffffffffffffffffffffffffffffffffffffffff1614156109c1576000809054906101000a900473ffffffffffffffffffffffffffffffffffffffff1673ffffffffffffffffffffffffffffffffffffffff16ff5b565b80600060078111156109d157fe5b60036000838152602001908152602001600020600b0160009054906101000a900460ff166007811115610a0057fe5b141515610a0c57600080fd5b6000809054906101000a900473ffffffffffffffffffffffffffffffffffffffff168073ffffffffffffffffffffffffffffffffffffffff163373ffffffffffffffffffffffffffffffffffffffff16141515610a6857600080fd5b600160036000858152602001908152602001600020600b0160006101000a81548160ff02191690836007811115610a9b57fe5b02179055507f5afe3b1bf87069693c075da5c22a98d63d1aef98a30dbbe538d0781a98b77ee5836040518082815260200191505060405180910390a1505050565b60008060006060600080600080600080600360008c8152602001908152602001600020600001549950600360008c8152602001908152602001600020600101549850600360008c8152602001908152602001600020600801549750600360008c81526020019081526020016000206009018054600181600116156101000203166002900480601f016020809104026020016040519081016040528092919081815260200182805460018160011615610100020316600290048015610be15780601f10610bb657610100808354040283529160200191610be1565b820191906000526020600020905b815481529060010190602001808311610bc457829003601f168201915b50505050509650600360008c8152602001908152602001600020600a01549550600360008c8152602001908152602001600020600b0160009054906101000a900460ff166007811115610c3057fe5b9450600360008c8152602001908152602001600020600b0160019054906101000a900473ffffffffffffffffffffffffffffffffffffffff169350600360008c8152602001908152602001600020600c0160009054906101000a900473ffffffffffffffffffffffffffffffffffffffff169250600360008c8152602001908152602001600020600d0160009054906101000a900473ffffffffffffffffffffffffffffffffffffffff1691503490508989898989898989898999509950995099509950995099509950995099509193959799509193959799565b600080600080606080606080600360008a8152602001908152602001600020600001549750600360008a8152602001908152602001600020600101549650600360008a815260200190815260200160002060020160009054906101000a900473ffffffffffffffffffffffffffffffffffffffff169550600360008a815260200190815260200160002060030160009054906101000a900473ffffffffffffffffffffffffffffffffffffffff169450600360008a81526020019081526020016000206004018054600181600116156101000203166002900480601f016020809104026020016040519081016040528092919081815260200182805460018160011615610100020316600290048015610e655780601f10610e3a57610100808354040283529160200191610e65565b820191906000526020600020905b815481529060010190602001808311610e4857829003601f168201915b50505050509350600360008a81526020019081526020016000206005018054600181600116156101000203166002900480601f016020809104026020016040519081016040528092919081815260200182805460018160011615610100020316600290048015610f165780601f10610eeb57610100808354040283529160200191610f16565b820191906000526020600020905b815481529060010190602001808311610ef957829003601f168201915b50505050509250600360008a81526020019081526020016000206006018054600181600116156101000203166002900480601f016020809104026020016040519081016040528092919081815260200182805460018160011615610100020316600290048015610fc75780601f10610f9c57610100808354040283529160200191610fc7565b820191906000526020600020905b815481529060010190602001808311610faa57829003601f168201915b50505050509150600360008a81526020019081526020016000206007018054600181600116156101000203166002900480601f0160208091040260200160405190810160405280929190818152602001828054600181600116156101000203166002900480156110785780601f1061104d57610100808354040283529160200191611078565b820191906000526020600020905b81548152906001019060200180831161105b57829003601f168201915b50505050509050878787878787878797509750975097509750975097509750919395975091939597565b81600360078111156110b057fe5b60036000838152602001908152602001600020600b0160009054906101000a900460ff1660078111156110df57fe5b1415156110eb57600080fd5b818034101515156110fb57600080fd5b83600080336003600089815260200190815260200160002060020160006101000a81548173ffffffffffffffffffffffffffffffffffffffff021916908373ffffffffffffffffffffffffffffffffffffffff1602179055503360036000898152602001908152602001600020600b0160016101000a81548173ffffffffffffffffffffffffffffffffffffffff021916908373ffffffffffffffffffffffffffffffffffffffff160217905550600460036000898152602001908152602001600020600b0160006101000a81548160ff021916908360078111156111dc57fe5b0217905550346004819055503373ffffffffffffffffffffffffffffffffffffffff166108fc879081150290604051600060405180830381858888f1935050505015801561122e573d6000803e3d6000fd5b507f92f64ca637d023f354075a4be751b169c1a8a9ccb6d33cdd0cb3520543995727876040518082815260200191505060405180910390a160036000848152602001908152602001600020600a01549150813403905060036000848152602001908152602001600020600d0160009054906101000a900473ffffffffffffffffffffffffffffffffffffffff1673ffffffffffffffffffffffffffffffffffffffff166108fc829081150290604051600060405180830381858888f19350505050158015611300573d6000803e3d6000fd5b5050505050505050565b806005600781111561131857fe5b60036000838152602001908152602001600020600b0160009054906101000a900460ff16600781111561134757fe5b14151561135357600080fd5b3360036000848152602001908152602001600020600c0160006101000a81548173ffffffffffffffffffffffffffffffffffffffff021916908373ffffffffffffffffffffffffffffffffffffffff160217905550336003600084815260200190815260200160002060020160006101000a81548173ffffffffffffffffffffffffffffffffffffffff021916908373ffffffffffffffffffffffffffffffffffffffff160217905550600660036000848152602001908152602001600020600b0160006101000a81548160ff0219169083600781111561143057fe5b02179055507fa8142743f8f70a4c26f3691cf4ed59718381fb2f18070ec52be1f1022d855557826040518082815260200191505060405180910390a15050565b6101e06040519081016040528060025481526020018881526020018773ffffffffffffffffffffffffffffffffffffffff1681526020018773ffffffffffffffffffffffffffffffffffffffff168152602001868152602001858152602001848152602001838152602001600154600254018152602001828152602001600081526020016000600781111561150157fe5b8152602001600073ffffffffffffffffffffffffffffffffffffffff168152602001600073ffffffffffffffffffffffffffffffffffffffff168152602001600073ffffffffffffffffffffffffffffffffffffffff1681525060036000898152602001908152602001600020600082015181600001556020820151816001015560408201518160020160006101000a81548173ffffffffffffffffffffffffffffffffffffffff021916908373ffffffffffffffffffffffffffffffffffffffff16021790555060608201518160030160006101000a81548173ffffffffffffffffffffffffffffffffffffffff021916908373ffffffffffffffffffffffffffffffffffffffff160217905550608082015181600401908051906020019061162c929190611b10565b5060a0820151816005019080519060200190611649929190611b10565b5060c0820151816006019080519060200190611666929190611b10565b5060e0820151816007019080519060200190611683929190611b10565b5061010082015181600801556101208201518160090190805190602001906116ac929190611b10565b5061014082015181600a015561016082015181600b0160006101000a81548160ff021916908360078111156116dd57fe5b021790555061018082015181600b0160016101000a81548173ffffffffffffffffffffffffffffffffffffffff021916908373ffffffffffffffffffffffffffffffffffffffff1602179055506101a082015181600c0160006101000a81548173ffffffffffffffffffffffffffffffffffffffff021916908373ffffffffffffffffffffffffffffffffffffffff1602179055506101c082015181600d0160006101000a81548173ffffffffffffffffffffffffffffffffffffffff021916908373ffffffffffffffffffffffffffffffffffffffff1602179055509050506001600254016002819055507f8e55ccfc9778ff8eba1646d765cf1982537ce0f9257054a17b48aad745250183876040518082815260200191505060405180910390a150505050505050565b6001546006600781111561181957fe5b60036000838152602001908152602001600020600b0160009054906101000a900460ff16600781111561184857fe5b14151561185457600080fd5b336003600084815260200190815260200160002060020160006101000a81548173ffffffffffffffffffffffffffffffffffffffff021916908373ffffffffffffffffffffffffffffffffffffffff1602179055503360036000848152602001908152602001600020600d0160006101000a81548173ffffffffffffffffffffffffffffffffffffffff021916908373ffffffffffffffffffffffffffffffffffffffff160217905550600760036000848152602001908152602001600020600b0160006101000a81548160ff0219169083600781111561193157fe5b02179055507f653d56639fee6b566a5c804764e9689de38645f0b733df89a36a1b7b42173dd8826040518082815260200191505060405180910390a15050565b600080339150349050818191509150915091565b806001600781111561199357fe5b60036000838152602001908152602001600020600b0160009054906101000a900460ff1660078111156119c257fe5b1415156119ce57600080fd5b6000809054906101000a900473ffffffffffffffffffffffffffffffffffffffff168073ffffffffffffffffffffffffffffffffffffffff163373ffffffffffffffffffffffffffffffffffffffff16141515611a2a57600080fd5b600260036000858152602001908152602001600020600b0160006101000a81548160ff02191690836007811115611a5d57fe5b02179055507f9b3b66e2380b690bae22c73ef1428fb0c91e72fe14a4b6defa13035214187aff836040518082815260200191505060405180910390a1505050565b600560036000838152602001908152602001600020600b0160006101000a81548160ff02191690836007811115611ad157fe5b02179055507ff00b9a5725b80c54016f42114f6ed7792d22eecb116011c4afac29c57bef6c95816040518082815260200191505060405180910390a150565b828054600181600116156101000203166002900490600052602060002090601f016020900481019282601f10611b5157805160ff1916838001178555611b7f565b82800160010185558215611b7f579182015b82811115611b7e578251825591602001919060010190611b63565b5b509050611b8c9190611b90565b5090565b611bb291905b80821115611bae576000816000905550600101611b96565b5090565b905600a165627a7a7230582012344811cd188546cc49d9c9c013cce446bb967993c0ea13cb916e48916388a50029",
  "source": "pragma solidity ^0.4.24;\n// Define a contract 'Supplychain'\n\ncontract SupplyChain {\n\n// Define 'owner'\naddress owner;\n\n// Define a variable called 'upc' for Universal Product Code (UPC)\nuint  upc;\n\n// Define a variable called 'sku' for Stock Keeping Unit (SKU)\nuint  sku;\n\n// Define a public mapping 'items' that maps the UPC to an Item.\nmapping (uint => Item) items;\n\nuint paidValue;\n// Define a public mapping 'itemsHistory' that maps the UPC to an array of TxHash, \n// that track its journey through the supply chain -- to be sent from DApp.\n\n// TODO: use items history mapping\nmapping (uint => string[]) itemsHistory;\n\n// Define enum 'State' with the following values:\nenum State \n{ \nHarvested,  // 0\nProcessed,  // 1\nPacked,     // 2\nForSale,    // 3\nSold,       // 4\nShipped,    // 5\nReceived,   // 6\nPurchased   // 7\n}\n\nState constant defaultState = State.Harvested;\n\n// Define a struct 'Item' with the following fields:\nstruct Item {\nuint    sku;  // Stock Keeping Unit (SKU)\nuint    upc; // Universal Product Code (UPC), generated by the Farmer, goes on the package, can be verified by the Consumer\naddress ownerID;  // Metamask-Ethereum address of the current owner as the product moves through 8 stages\naddress originFarmerID; // Metamask-Ethereum address of the Farmer\nstring  originFarmName; // Farmer Name\nstring  originFarmInformation;  // Farmer Information\nstring  originFarmLatitude; // Farm Latitude\nstring  originFarmLongitude;  // Farm Longitude\nuint    productID;  // Product ID potentially a combination of upc + sku\nstring  productNotes; // Product Notes\nuint    productPrice; // Product Price\nState   itemState;  // Product State as represented in the enum above\naddress distributorID;  // Metamask-Ethereum address of the Distributor\naddress retailerID; // Metamask-Ethereum address of the Retailer\naddress consumerID; // Metamask-Ethereum address of the Consumer\n}\n\n// Define 8 events with the same 8 state values and accept 'upc' as input argument\nevent Harvested(uint upc);\nevent Processed(uint upc);\nevent Packed(uint upc);\nevent ForSale(uint upc);\nevent Sold(uint upc);\nevent Shipped(uint upc);\nevent Received(uint upc);\nevent Purchased(uint upc);\n\n// Define a modifer that checks to see if msg.sender == owner of the contract\nmodifier onlyOwner() {\n\trequire(msg.sender == owner);\n\t_;\n}\n\n// Define a modifer that verifies the Caller\nmodifier verifyCaller (address _address) {\n\trequire(msg.sender == _address); \n\t_;\n}\n\n// Define a modifier that checks if the paid amount is sufficient to cover the price\nmodifier paidEnough(uint _price) { \n\trequire(msg.value >= _price); \n\t_;\n}\n\n// Define a modifier that checks the price and refunds the remaining balance\nmodifier checkValue(uint _upc) {\n\t_;\n\tuint _price = items[_upc].productPrice;\n\tuint amountToReturn = msg.value - _price;\n\titems[_upc].consumerID.transfer(amountToReturn);\n}\n\n// Define a modifier that checks if an item.state of a upc is Harvested\nmodifier harvested(uint _upc) {\n\trequire(items[_upc].itemState == State.Harvested);\n\t_;\n}\n\n// Define a modifier that checks if an item.state of a upc is Processed\nmodifier processed(uint _upc) {\n\trequire(items[_upc].itemState== State.Processed);\n\t_;\n}\n\n// Define a modifier that checks if an item.state of a upc is Packed\nmodifier packed(uint _upc) {\n\trequire(items[_upc].itemState== State.Packed);\n\t_;\n}\n\n// Define a modifier that checks if an item.state of a upc is ForSale\nmodifier forSale(uint _upc) {\n\trequire(items[_upc].itemState== State.ForSale);\n\t_;\n}\n\n// Define a modifier that checks if an item.state of a upc is Sold\nmodifier sold(uint _upc) {\n\trequire(items[_upc].itemState== State.Sold);\n\t_;\n}\n\n// Define a modifier that checks if an item.state of a upc is Shipped\nmodifier shipped(uint _upc) {\n\trequire(items[_upc].itemState== State.Shipped);\n\t_;\n}\n\n// Define a modifier that checks if an item.state of a upc is Received\nmodifier received(uint _upc) {\n\trequire(items[_upc].itemState== State.Received);\n\t_;\n}\n\n// Define a modifier that checks if an item.state of a upc is Purchased\nmodifier purchased(uint _upc) {\n\trequire(items[_upc].itemState== State.Purchased);\n\t_;\n}\n\n// In the constructor set 'owner' to the address that instantiated the contract\n// and set 'sku' to 1\n// and set 'upc' to 1\nconstructor() public payable {\n\towner = msg.sender;\n\tsku = 1;\n\tupc = 1;\n}\n\n// Define a function 'kill' if required\nfunction kill() public {\n\tif (msg.sender == owner) {\n\t\tselfdestruct(owner);\n\t}\n}\n\n/* \nHarvested,  // 0\nProcessed,  // 1\nPacked,     // 2\nForSale,    // 3\nSold,       // 4\nShipped,    // 5\nReceived,   // 6\nPurchased   // 7 \n*/\n// Define a function 'harvestItem' that allows a farmer to mark an item 'Harvested'\nfunction harvestItem(uint _upc, address _originFarmerID, string _originFarmName, string _originFarmInformation, string  _originFarmLatitude, string  _originFarmLongitude, string  _productNotes) public \n{\n// Add the new item as part of Harvest\n\nitems[_upc]=Item({ sku:sku,upc:_upc,ownerID:_originFarmerID,originFarmerID:_originFarmerID,originFarmName:_originFarmName,originFarmInformation:_originFarmInformation,originFarmLatitude:_originFarmLatitude,originFarmLongitude:_originFarmLongitude,productID:sku+upc,productNotes:_productNotes,productPrice:0,itemState:State.Harvested,distributorID:0,retailerID:0,consumerID:0});\n\n// Increment sku\nsku = sku + 1;\n// Emit the appropriate event\nemit Harvested(_upc);\n\n}\n\n// Define a function 'processtItem' that allows a farmer to mark an item 'Processed'\nfunction processItem(uint _upc) harvested(_upc) verifyCaller(owner) public \n// Call modifier to check if upc has passed previous supply chain stage\n\n// Call modifier to verify caller of this function\n\n{\n// Update the appropriate fields\nitems[_upc].itemState = State.Processed;\n\n\n// Emit the appropriate event\nemit Processed(_upc);\n}\n\n// Define a function 'packItem' that allows a farmer to mark an item 'Packed'\nfunction packItem(uint _upc) processed(_upc) verifyCaller(owner) public \n// Call modifier to check if upc has passed previous supply chain stage\n\n// Call modifier to verify caller of this function\n\n{\n// Update the appropriate fields\nitems[_upc].itemState = State.Packed;\n\n// Emit the appropriate event\nemit Packed(_upc);\n\n}\n\n// Define a function 'sellItem' that allows a farmer to mark an item 'ForSale'\nfunction sellItem(uint _upc, uint _price) packed(_upc) verifyCaller(owner) public \n// Call modifier to check if upc has passed previous supply chain stage\n\n// Call modifier to verify caller of this function\n\n{\n// Update the appropriate fields\nitems[_upc].itemState = State.ForSale;\nitems[_upc].productPrice = _price;\n// Emit the appropriate event\nemit ForSale(_upc);\n\n}\n\n// Define a function 'buyItem' that allows the disributor to mark an item 'Sold'\n// Use the above defined modifiers to check if the item is available for sale, if the buyer has paid enough, \n// and any excess ether sent is refunded back to the buyer\nfunction buyItem(uint _upc,uint _price) forSale(_upc) paidEnough(_price) checkValue(_upc)  public payable \n// Call modifier to check if upc has passed previous supply chain stage\n\n// Call modifer to check if buyer has paid enough\n\n// Call modifer to send any excess ether back to buyer\n\n{\n\n// Update the appropriate fields - ownerID, distributorID, itemState\nitems[_upc].ownerID = msg.sender;\nitems[_upc].distributorID = msg.sender;\nitems[_upc].itemState = State.Sold;\n\npaidValue = msg.value;\n\n// Transfer money to farmer\nmsg.sender.transfer(_price);\n\n// emit the appropriate event\nemit Sold(_upc);\n}\n\n// Define a function 'shipItem' that allows the distributor to mark an item 'Shipped'\n// Use the above modifers to check if the item is sold\nfunction shipItem(uint _upc)  public \n// Call modifier to check if upc has passed previous supply chain stage\n\n// Call modifier to verify caller of this function\n\n{\n// Update the appropriate fields\nitems[_upc].itemState = State.Shipped;\n\n// Emit the appropriate event\nemit Shipped(_upc);\n\n}\n\n// Define a function 'receiveItem' that allows the retailer to mark an item 'Received'\n// Use the above modifiers to check if the item is shipped\nfunction receiveItem(uint _upc) shipped(_upc) public \n// Call modifier to check if upc has passed previous supply chain stage\n\n// TODO: Access Control List enforced by calling Smart Contract / DApp\n{\n// Update the appropriate fields - ownerID, retailerID, itemState\nitems[_upc].retailerID = msg.sender;\nitems[_upc].ownerID = msg.sender;\nitems[_upc].itemState = State.Received;\n\n// Emit the appropriate event\nemit Received(_upc);\n\n\n}\n\n// Define a function 'purchaseItem' that allows the consumer to mark an item 'Purchased'\n// Use the above modifiers to check if the item is received\nfunction purchaseItem(uint _upc) received(upc) public \n// Call modifier to check if upc has passed previous supply chain stage\n\n// TODO: Access Control List enforced by calling Smart Contract / DApp\n{\n// Update the appropriate fields - ownerID, consumerID, itemState\nitems[_upc].ownerID = msg.sender;\nitems[_upc].consumerID = msg.sender;\nitems[_upc].itemState = State.Purchased;\n// Emit the appropriate event\nemit Purchased(_upc);\n}\n\n// Define a function 'fetchItemBufferOne' that fetches the data\nfunction fetchItemBufferOne(uint _upc) public view returns \n(\n\tuint    itemSKU,\n\tuint    itemUPC,\n\taddress ownerID,\n\taddress originFarmerID,\n\tstring  originFarmName,\n\tstring  originFarmInformation,\n\tstring  originFarmLatitude,\n\tstring  originFarmLongitude\n\t) \n{\n// Assign values to the 8 parameters\nitemSKU = items[_upc].sku;//0\nitemUPC = items[_upc].upc;//1\nownerID = items[_upc].ownerID;//2\noriginFarmerID = items[_upc].originFarmerID;//3\n\noriginFarmName = items[_upc].originFarmName;//4\noriginFarmInformation = items[_upc].originFarmInformation;//5\noriginFarmLatitude = items[_upc].originFarmLatitude;//6\noriginFarmLongitude = items[_upc].originFarmLongitude;//7\n\nreturn \n(\n\titemSKU,\n\titemUPC,\n\townerID,\n\toriginFarmerID,\n\toriginFarmName,\n\toriginFarmInformation,\n\toriginFarmLatitude,\n\toriginFarmLongitude\n\t);\n}\n\n// Define a function 'fetchItemBufferTwo' that fetches the data\nfunction fetchItemBufferTwo(uint _upc) public view returns \n(\n\tuint    itemSKU,\n\tuint    itemUPC,\n\tuint    productID,\n\tstring  productNotes,\n\tuint    productPrice,\n\tuint    itemState,\n\taddress distributorID,\n\taddress retailerID,\n\taddress consumerID,\n    uint    paidValue\n\t) \n{\n// Assign values to the 9 parameters\nitemSKU = items[_upc].sku; //0\nitemUPC = items[_upc].upc; //1\nproductID = items[_upc].productID; //2\nproductNotes = items[_upc].productNotes; //3\n\nproductPrice = items[_upc].productPrice; //4\nitemState = uint(items[_upc].itemState); //5\ndistributorID = items[_upc].distributorID; //6\nretailerID = items[_upc].retailerID; //7\n\nconsumerID = items[_upc].consumerID; //8\n\npaidValue = msg.value; //9\nreturn \n(\n\titemSKU,\n\titemUPC,\n\tproductID,\n\tproductNotes,\n\tproductPrice,\n\titemState,\n\tdistributorID,\n\tretailerID,\n\tconsumerID,\n\tpaidValue\n\t);\n}\n\n// Define a function 'fetchItemBufferOne' that fetches the data\nfunction fetchMsg(uint _upc) public view returns \n(\n\taddress    msgSender,\n\tuint    msgValue\n) \n{\n// Assign values to the 8 parameters\nmsgSender = msg.sender;//0\nmsgValue = msg.value;//1\n \n \nreturn \n(\n\tmsgSender,\n\tmsgValue\n);\n}\n\n// event test_value(uint256 indexed value1);\n// uint256 value_test;\n\n// function test_f()  {\n\n//   //value_test processing\n//   test_value(value_test); // log the current value\n\n// }\n}\n",
  "sourcePath": "/Users/msharekh/Google Drive/Blockchain Developer Nanodegree/Term 2/project-6-Architect a Blockchain Supply Chain Solution-Part B/contracts/coffeebase/SupplyChain.sol",
  "compiler": {
    "name": "solc",
    "version": "0.4.24+commit.e67f0147.Emscripten.clang"
  },
  "schemaVersion": "2.0.1",
  "updatedAt": "2019-04-13T22:19:12.066Z"
}